:020000021000EC
:10F0000000000120F9B0020021B1020023B102008A
:10F0100025B1020027B1020029B102000000000062
:10F020000000000000000000000000002BB1020002
:10F030002DB10200000000002FB1020031B102002A
:10F04000856D020033B1020033B1020033B102001A
:10F0500033B1020033B102003172020033B1020059
:10F0600033B1020033B10200FD7A020033B1020075
:10F0700033B1020033B1020033B1020033B10200F8
:10F0800033B1020011A0020033B1020033B102001B
:10F09000D5A0020033B1020029B0020033B1020052
:10F0A00033B1020033B1020033B1020033B10200C8
:10F0B00033B1020033B10200000000000000000084
:10F0C00033B1020033B1020033B1020033B10200A8
:10F0D00033B10200057A020033B1020000000000E3
:10F0E0000000000000000000000000000000000020
:10F0F0000000000000000000000000000000000010
:10F1000000000000000000000000000000000000FF
:10F1100000000000000000000000000000000000EF
:10F4000010B5054C237833B9044B13B10448AFF35E
:10F4100000800123237010BD302300200000000075
:10F42000B0C50200084B10B51BB108490848AFF33E
:10F4300000800848036803B910BD074B002BFBD0C0
:10F44000BDE81040184700BF000000003423002032
:10F45000B0C502001C23002000000000154B002B4B
:10F4600008BF134B9D46A3F5803A00218B460F46FB
:10F470001348144A121A00F065F80F4B002B00D005
:10F4800098470E4B002B00D0984700200021040025
:10F490000D000D48002802D00C48AFF3008000F0AA
:10F4A0002BF82000290000F0C7FD00F011F800BF84
:10F4B0000000080000000120000000000000000023
:10F4C00030230020783200200000000000000000FF
:10F4D00008B5074B044613B10021AFF30080054B7C
:10F4E0001868836A03B19847204600F033F800BFDC
:10F4F000000000001CC2020070B50E4B0E4CE41A56
:10F50000A41000251E46A54204D056F82530984781
:10F510000135F8E70CF076FE084C094BE41AA4100C
:10F5200000251E46A54204D056F8253098470135DF
:10F53000F8E770BD142300201423002018230020B6
:10F540001423002002440346934202D003F8011B17
:10F55000FAE77047FEE700BFA0DF7047A2DF704701
:10F5600063DF70470B88102B06D0112B03D14FF6A9
:10F57000FF730380704770478B880380704700BF1C
:10F58000F0B5A9B040220021054618A8FFF7DAFF20
:10F5900018A8514902F0B2FE50491AA802F0AEFE76
:10F5A0009DF89C309DF89D204D49069148A7D7E9CC
:10F5B0000067012161F3030302F0F00261F3071316
:10F5C0006FF3071204A918A88DF89C308DF89D20C0
:10F5D000CDE90467249101F02DFE002873D12A465D
:10F5E0004FF6FF7322F8023B012341F61A04184636
:10F5F00002A98DF80A30ADF80840FFF7ADFF08B159
:10F600000BF01AFA374B186859689A68DB6808AC2F
:10F610000FC44FF47F430DF10E0108A8ADF80C3074
:10F620002E1DFFF79DFF00284AD11C22002111A8A2
:10F63000FFF788FF9DF8443001AC43F002036FF3FD
:10F64000C3032046032200218DF84430FFF77AFFE0
:10F650009DF804209DF805309DF806E09DF8447063
:10F66000012161F3030261F3030361F3071361F303
:10F670000712022161F3420E8DF8042000211422AA
:10F6800047F008070CA88DF805308DF806E08DF8D6
:10F690004470FFF757FF334668880D94124D10955C
:10F6A000042403AE0CAA11A90C96ADF83C40ADF8A9
:10F6B0003840FFF753FF08B10BF0BEF929B0F0BD99
:10F6C0000BF0BAF9B1E70BF0B7F988E7AFF30080B8
:10F6D000200202180200000030C2020038C20200FC
:10F6E0005245540020C202004C230020002900F0A3
:10F6F000B8812DE9F041DFF878E39EF8003033B9A6
:10F70000D84A13780133DBB21370BDE8F08193005F
:10F71000D548D64A9BB2A0FB0303DB08106800F073
:10F720005381013B9BB203EB43039C1D044401F155
:10F730000C020330E827EE268E258821C9E0BCF5AF
:10F74000400F00F08B81BCF5800F00F0848102F83F
:10F750000B1C9B0003F4400CBCF5000F00F0D380A1
:10F76000BCF5400F00F07481BCF5800F00F06D8196
:10F7700002F80C1C9B0003F4400CBCF5000F00F0D9
:10F78000CB80BCF5400F00F05D81BCF5800F00F030
:10F79000568102F8091C9B0003F4400CBCF5000FD5
:10F7A00000F0C380BCF5400F00F04681BCF5800F2F
:10F7B00000F03F8102F80A1C9B0003F4400CBCF5EA
:10F7C000000F00F0BB80BCF5400F00F02F81BCF5AE
:10F7D000800F00F0288102F8071C9B0003F4400C06
:10F7E000BCF5000F00F0B380BCF5400F00F01881AD
:10F7F000BCF5800F00F0118102F8081C9B0003F497
:10F80000400CBCF5000F00F0AB80BCF5400F00F0E1
:10F810000181BCF5800F00F0FA8002F8051C9B0006
:10F8200003F4400CBCF5000F00F0A380BCF5400FC2
:10F8300000F0EA80BCF5800F00F0E38002F8061CBF
:10F840009B0003F4400CBCF5000F00F09B80BCF55E
:10F85000400F00F0D380BCF5800F00F0CC8002F8A0
:10F86000031C9B0003F4400CBCF5000F00F09380D8
:10F87000BCF5400F00F0BC80BCF5800F00F0B580F7
:10F8800002F8041C9B0003F4400CBCF5000F00F0D0
:10F890008B80BCF5400F00F0A580BCF5800F00F018
:10F8A0009E8002F8011C9B0003F44003B3F5000F97
:10F8B00000F08380B3F5400F00F08E80B3F5800F29
:10F8C00000F0878002F8021C0330A04202F10C0213
:10F8D0007AD010F8023C10F8038C10F801CC1B020F
:10F8E00043EA084343EA0C0303F4400CBCF5000F61
:10F8F0007FF425AF9B0003F4400CBCF5000F02F829
:10F900000B7C7FF42DAF9B0003F4400CBCF5000F83
:10F9100002F80C7C7FF435AF9B0003F4400CBCF57F
:10F92000000F02F8097C7FF43DAF9B0003F4400C0C
:10F93000BCF5000F02F80A7C7FF445AF9B0003F48E
:10F94000400CBCF5000F02F8077C7FF44DAF9B0024
:10F9500003F4400CBCF5000F02F8087C7FF455AFAF
:10F960009B0003F4400CBCF5000F02F8057C7FF40B
:10F970005DAF9B0003F4400CBCF5000F02F8067C61
:10F980007FF465AF9B0003F4400CBCF5000F02F858
:10F99000037C7FF46DAF9B0003F4400CBCF5000FBB
:10F9A00002F8047C7FF475AF9B0003F44003B3F5C9
:10F9B000000F02F8017C7FF47DAF0330A04202F813
:10F9C000027C02F10C0284D100238EF80030BDE8E5
:10F9D000F08102F8025C77E702F8026C74E702F843
:10F9E000015C60E702F8016C5DE702F8045C49E73E
:10F9F00002F8046C46E702F8035C32E702F8036C95
:10FA00002FE702F8065C1BE702F8066C18E702F81D
:10FA1000055C04E702F8056C01E702F8085CEDE616
:10FA200002F8086CEAE602F8075CD6E602F8076C12
:10FA3000D3E602F80A5CBFE602F80A6CBCE602F8FC
:10FA4000095CA8E602F8096CA5E602F80C5C91E6F0
:10FA500002F80C6C8EE602F80B5C7AE602F80B6C8E
:10FA600077E6704750230020ABAAAAAAEC31002009
:10FA7000512300202DE9F0414C4D86B0964680463A
:10FA80000E460FCD00AF3C1D0FC428682060002338
:10FA9000FF2287F807E04FF0160C4FF0020E4FF0F0
:10FAA000805443493C610125381D87F804C07A71B0
:10FAB000BA713A7287F809E0BB72FB723B73BB7391
:10FAC0003B757D7307F02EFE0446002867D106EBD8
:10FAD000460292B293000A3323F00703ADEB030D05
:10FAE000344BDFF8DCC0DFF8DCE01870520092B273
:10FAF00069460346CCF800808EF8005007F0E4FE1B
:10FB0000044600284BD114362B4B2C4A1B68C6EBFD
:10FB10000616760000BF00BF00BF00BF00BF00BFD9
:10FB200000BF00BF93422FD000BF00BF00BF00BF87
:10FB300000BF00BF00BF00BF00BF00BF00BF00BFCD
:10FB400000BF00BF00BF00BF00BF00BF00BF00BFBD
:10FB500000BF00BF00BF00BF00BF00BF00BF00BFAD
:10FB600000BF00BF00BF00BF00BF00BF00BF00BF9D
:10FB700000BF00BF00BF00BF00BF00BF00BF00BF8D
:10FB800000BF00BF00BF00BF013EC3D107F024FF8C
:10FB900007F07EFE20461837BD46BDE8F0810AF02A
:10FBA0004BFF20461837BD46BDE8F08140C2020039
:10FBB000EDF6010050230020A42100200024F400D1
:10FBC000EC310020512300203EDF704773DF704787
:10FBD00076DF70477ADF70477CDF70477FDF7047E2
:10FBE000A8DF7047A9DF7047ADDF704767DF704758
:10FBF000704700BF0D2800D170470AF01DBF00BF3D
:10FC00000AF01ABF10B5044609F074FD2046BDE89D
:10FC1000104001F07FBA00BF0B4B1B784FF0A042A1
:10FC200033B94FF40031C2F80815C2F80C357047EB
:10FC3000D2F80435D94301F4003103F40033C2F89B
:10FC40000815C2F80C357047A423002008B530B160
:10FC5000032803D1022008F0BFF820B908BDFFF740
:10FC6000B3FF0028FAD0BDE808400AF0E5BE00BFA7
:10FC7000704700BF10B5047804B110BD0C480AF0FD
:10FC80009DFE4FF0A0434FF40022C3F80825C3F8AF
:10FC90000C4508B10AF0D0FE064B3B211888FFF74F
:10FCA00097FF0028E9D0BDE810400AF0C5BE00BFAC
:10FCB000342400208C21002030B50388023B85B01D
:10FCC0000446542B00F29A80DFE813F0EF0098000E
:10FCD0009800980098009800980098009800980064
:10FCE0009800980098009800F600550098001F01B1
:10FCF0009800980098009800980098009800980044
:10FD00009800980098009800980098009800980033
:10FD10009800980098009800980098009800980023
:10FD20009800980098009800980098009800980013
:10FD30009800980098009800980098009800AA00F1
:10FD400098009800980098009800980098009800F3
:10FD500098009800980098009800980098009800E3
:10FD60009800980098009800B300C600DE00980044
:10FD70009800E800AA006E480AF020FE4FF0A04369
:10FD80004FF400210022C3F80815C3F80C2508B170
:10FD90000AF052FE4FF0A0434FF480210020654A44
:10FDA000C3F808154FF6FF71C3F80C05118007F072
:10FDB000F9FF08B10AF040FE102268460021FFF763
:10FDC000C1FB00233C2268468DF8003001938DF87A
:10FDD0000830ADF80C30ADF80A20FFF7F7FE08B197
:10FDE0000AF02AFE00224FF4804153480AF08EFDAB
:10FDF00008B10AF021FE514B01221A70204602F090
:10FE000015F921464E48FFF7ADFB204602F06AF98E
:10FE1000204605F07DFC204601F01CF905B030BD00
:10FE200013218088FFF7D4FE0028E7D00AF004FEF3
:10FE3000E4E7434DC3882A899A4271D0AA889A423E
:10FE4000DCD1238A042BD9D13E4AD4F812103E4B80
:10FE5000116001221A70D1E78279002ACED0837B0B
:10FE6000043B022BCAD8022A14BF012202224FF4FB
:10FE7000C173694680888DF80020ADF80430FFF723
:10FE8000AFFE0028BAD0D1E72A4A002310881946CD
:10FE90001A46FFF7A7FE0028B0D0C7E717218088D1
:10FEA000FFF7A2FE0028A9D0C0E700218088FFF755
:10FEB0009DFE0028A2D0B9E74FF0A04300224FF4E6
:10FEC00080204FF400351D49C3F80C05C3F8082500
:10FED0001948C3F80855C3F80C250A700AF06EFDDE
:10FEE00008B10AF0A9FD134BA2881A80104800221D
:10FEF0004FF480310AF00AFD08B10AF09DFD07F0C9
:10FF00003BFF00283FF47AAF90E70A4A00231088AD
:10FF100085211A46FFF762FE00283FF46FAF85E7A0
:10FF2000028A022A8AD1123002F0E4F9E38885E7D6
:10FF3000342400208C21002058240020A4230020F9
:10FF400028240020A82300205424002000B5037892
:10FF500085B00E2B2BD8DFE803F0322A3243535BF7
:10FF60002D2A3F2A2D082D2A5000102268460021F4
:10FF7000FFF7E8FA00233C2268468DF80030019331
:10FF80008DF80830ADF80C30ADF80A20FFF71EFEF2
:10FF900008B10AF051FD00224FF480411F480AF0D9
:10FFA000B5FC08B10AF048FD1D4B01221A7005B0DE
:10FFB0005DF804FB806850B905B05DF804FB8088EB
:10FFC00005F03AFC11280346F1D0002BEFD00AF0DF
:10FFD00033FD05B05DF804FB00200AF02DFDE6E7D7
:10FFE000428941F206039A42E1D14088012105F09D
:10FFF0000FFC30F00803DAD0E9E705F015FCD6E78E
:020000022000DC
:1000000004A9002301F8103D408805F00BFCCEE761
:1000100009F042F911280346D7D1C8E75824002037
:10002000A42300204FF0A0434FF4F0110022C3F8A6
:100030000C15C3F80825FEE7F0B50020ABB009F0B9
:10004000D3FE08B10AF0F8FC00234FF4F0104FF093
:10005000A04103220133202B40FA03F503F5E0749D
:1000600004D0ED0748BF41F82420F3E74FF0A0414A
:1000700000244FF460234FF48012C1F80835204665
:10008000C1F80C452346C1F80C25C1F80845B14A12
:1000900005210AF049FB08B10AF0CEFCAE4AAF4890
:1000A00001210AF021FCAE4AAE4801210AF01CFCF5
:1000B00008B10AF0C1FC40F266620121AA4807F0CB
:1000C00003FE08B10AF0B8FCA84BA94918680C90C7
:1000D00000230CA850220AF049FF08B10AF0ACFC3A
:1000E0001BAA012100200AF0B7FF08B10AF0A4FC06
:1000F00017231BA8ADF87C300AF0C6FF08B10AF040
:100100009BFC9C480AF07CFF08B10AF095FC9A48D9
:100110000AF080FF08B10AF08FFC05F00BFB08B174
:100120000AF08AFC052200211BA8FFF70BFA9DF8B4
:100130006C309DF86F109DF8702043F00103032090
:1001400003F0FD0360F30613014302436FF3C7138B
:10015000072510241BA88DF86C308DF86F108DF8D2
:1001600070208DF86D508DF86E4005F047FB08B19A
:100170000AF062FC814805F025FB08B10AF05CFC3E
:100180007F4808F09FFD08B10AF056FC9DF830301A
:100190007C48012262F3030362F307138DF83030C9
:1001A0000BF080FC774982B20CA8FFF715FD08B16F
:1001B0000AF042FC082200211BA8FFF7C3F95024D3
:1001C000A02100224FF4C8731BA8ADF86C40ADF815
:1001D0006E10ADF87020ADF87230FFF7FBFC08B17F
:1001E0000AF02AFC68496948694DFFF7C9F969496D
:1001F00000200BF0D5F9684B1868596802AB03C3AF
:100200003C2200210CA8FFF79DF9002407200123C0
:100210003C2221468DF8310006261BA88DF830308F
:100220008DF832308DF83360FFF78CF902232146C8
:10023000ADF87C30202202AB04A820938DF86C40EE
:10024000FFF780F9009404AA0CA8544B8DF81340D2
:100250001BA900F043FE2C7008B10AF0EDFB1C2234
:1002600000211BA8FFF76EF94FF4202700234FF45D
:10027000203603244A494B4A1B931BA8ADF87A3019
:100280008DF87C301C971D968DF878402091219236
:1002900001F092FE08B10AF0CFFB102200211BA84A
:1002A000FFF750F900233C221BA88DF86C301C93FB
:1002B0008DF87430ADF87830ADF87620FFF786FC15
:1002C00008B10AF0B9FB00224FF4804136480AF029
:1002D0001DFB08B10AF0B0FB4FF0A04201232B70C8
:1002E000D2F80435314ED94301F4003103F4003320
:1002F000C2F808150C20C2F80C3500F033F9FA25C5
:100300004FF0A0441BA8D4F80435DA4302F40032BD
:1003100003F40033C4F80825C4F80C3500F0C8F91C
:1003200040F2DC520C211BA800F05AFC0B220C21DD
:100330001BA8FFF79FFB002840F0E5804FF4002347
:10034000C4F80835C4F80C0544F62063174F32682A
:10035000174C2FE0AC230020F1FB010060C202002B
:1003600019FC010064C202009021002054C2020066
:1003700054230020B9FC010005FC01004DFF0100E1
:1003800071FC010068C202002424002028240020FF
:10039000A423002074C2020058C202004DFC0100D8
:1003A00075FC010001FC010058240020A42100205C
:1003B0000024F40000BF00BF00BF00BF00BF00BFAB
:1003C00000BF00BFA2422FD000BF00BF00BF00BFD0
:1003D00000BF00BF00BF00BF00BF00BF00BF00BF25
:1003E00000BF00BF00BF00BF00BF00BF00BF00BF15
:1003F00000BF00BF00BF00BF00BF00BF00BF00BF05
:1004000000BF00BF00BF00BF00BF00BF00BF00BFF4
:1004100000BF00BF00BF00BF00BF00BF00BF00BFE4
:1004200000BF00BF00BF00BF013BC3D1013D7FF44F
:1004300067AF00F02DF91BA80C2100F085FB0B2203
:100440000C211BA8FFF716FB4FF0A0434FF48021AF
:10045000C3F80C15C3F808553E4A386800BF00BF02
:1004600000BF00BF00BF00BF00BF00BFA0422FD031
:1004700000BF00BF00BF00BF00BF00BF00BF00BF84
:1004800000BF00BF00BF00BF00BF00BF00BF00BF74
:1004900000BF00BF00BF00BF00BF00BF00BF00BF64
:1004A00000BF00BF00BF00BF00BF00BF00BF00BF54
:1004B00000BF00BF00BF00BF00BF00BF00BF00BF44
:1004C00000BF00BF00BF00BF00BF00BF00BF00BF34
:1004D000013AC3D1204C214FC3F808152646C3F872
:1004E0000C5500252378D3B909F0F4FC0028FBD182
:1004F00009F0F0FC0028F5D1FFF766FB0028F0D0EA
:100500000AF09AFAEDE700234FF40022C4F80C2514
:100510001846C4F8083512490BF042F814E70C20CD
:10052000357000F01FF839681BA800F063FA40F23C
:10053000DC520C211BA800F053FB0B220C211BA842
:10054000FFF798FA18B1064900200BF029F800F0DF
:100550009FF8C9E740420F0054240020A823002040
:1005600094C202002DE9F04100EB400528460BF053
:1005700067F9444C444F206028460BF061F9434B27
:10058000266818600025FF2304EE905A07EE905A63
:1005900006EE105A284606EE903A04EE103AB2EEF5
:1005A000082AF1EE082AB6EE003AF7EE003A14E017
:1005B00017F80E3098F8022006EE103A3B5D07EE71
:1005C000902A04EE103A9CF8022098F8013004EECC
:1005D000902A06EE903A9CF8013007EE100AF8EEE9
:1005E000C75A07EE105A65EE825AB8EEC75A85EE22
:1005F000A27A01356810421C02EB420400EB400E67
:100600000C2D07EB0E0807EB040C06F10306B8EE01
:10061000C66A75EE475A05EE103A65EE835AB8EE93
:10062000E77AB8EEC44A73EEE57AF8EEE66AF8EED9
:10063000E44AB8EEC55A66EEA76A26EE276A24EEAB
:10064000254A67EE277A64EEA54A25EE257A36EE2E
:10065000046A36EE877A77EEA47AFCEEC66ABCEEC0
:10066000C77AFCEEE77A16EE901A17EE102A17EE0C
:10067000903A06F8031C06F8022C06F8013C97D1C4
:10068000BDE8F0817C240020B0C202007824002064
:1006900008B5054B18680BF0DBF8044B1868BDE88B
:1006A00008400BF0D5B800BF7C240020782400203F
:1006B0002DE9F04FCD4ACE4B12681B681188947813
:1006C000198011469C7095B031F8034F06918978D6
:1006D00059711146A3F8034031F8064F0791897804
:1006E00019721146DC8031F8094F08918978D97266
:1006F0001146A3F8094031F80C4F09911546897845
:1007000099739C8135F80F4F0A95A978597415464D
:10071000A3F80F4035F8124F03F1120A2E46554642
:10072000B17802955C82A9701546924635F8154F4E
:100730000B96A978D975A3F815403AF8184FCDF85B
:1007400034A09AF802101C831446997634F81BAF33
:100750000C95214603F11B0B5C460E918978A3F89A
:100760001BA09246A1703AF81EBF0194514603F1B6
:100770001E0A544691F802A0A3F81EB0934684F8CE
:1007800002A03BF821AF0F91594693F800B00394B3
:100790001091CDF810B091F802B0CDF844B093F8B4
:1007A00005B0A3F821A0594693F801B0B3F803A00F
:1007B000CDF814B093F802B0A3F800A0CDF84CB077
:1007C00093F808A0B3F806B0A3F803B083F805A027
:1007D000B3F809B093F80BA0A3F806B083F808A00B
:1007E000B3F80CB093F80EA0029CA3F809B083F8FC
:1007F0000BA0B3F80FB093F811A09970A3F80CB048
:1008000083F80EA0B4F800B094F802A01291A3F8F7
:100810000FB083F811A0B3F815B093F817A0A3F8A0
:1008200012B084F802A0B3F818B093F81AA0019C93
:10083000A3F815B083F817A094F802A0B4F800B09C
:100840000399A3F818B083F81AA091F802A0B1F8A0
:1008500000B0A3F81BB00C4601999B4681F802A09A
:100860003BF821AFA3F81EA09DF844109DF810A0FE
:10087000A17083F821A09DF814A083F822A09DF810
:100880004CA083F823A09DF84840B3F800A0A0F83E
:1008900000A003F11506847003F11805B3F800A059
:1008A00003F1030903F1060803F1090C03F10C0E2F
:1008B00003F10F079B789370A2F800A0B9F80030FD
:1008C00099F802A080F805A0A0F80330B9F800302C
:1008D00099F80290A2F80330069B83F80290B8F8CA
:1008E000003098F8029080F80890C380B8F8003083
:1008F00098F80280D380079B83F80280BCF8003010
:100900009CF8028080F80B80A0F80930BCF8003019
:100910009CF802C0A2F80930089B83F802C0BEF818
:1009200000309EF802C080F80EC08381BEF800300F
:100930009EF802E09381099B029983F802E03B88CC
:1009400097F802E080F811E0A0F80F303B88BF78FC
:10095000A2F80F300A9B9F708F789E460B884382C7
:1009600007750B888F7853820B9B9F70B7783388FD
:10097000A0F81530C7753788B3780C99A2F81570B0
:100980008B702B88AE78867603830D992E88AB7892
:10099000019F16838B703B88BD784577A0F81B308C
:1009A0000E99BB783D88039CA2F81B508B7023885E
:1009B0002146A47880F82040C3830C888B780F9957
:1009C000D4838B70BBF800309BF8021080F82310A2
:1009D000A0F82130BBF800109BF80230A2F82110DB
:1009E00010998B7015B0BDE8F08F00BF7C240020FB
:1009F00078240020F0B4534B1B6813F00302C1F3BA
:100A00000724C1F307454FEA116171D11746164615
:100A100064F3070761F3070265F3070665F30F2226
:100A200061F30F2764F30F2664F3174265F317474A
:100A300061F3174661F31F6264F31F6765F31F6676
:100A40009A605A611A625F601F61DF611E60DE603A
:100A50009E6199781A8881701946028031F8034F97
:100A60001A4689784171A0F8034032F8064F1946BA
:100A700092780272C48031F8094F1A468978C1729F
:100A8000A0F8094032F80C4F19469278827384819D
:100A900031F80F4F1A4689784174A0F80F4032F8A8
:100AA000124F194692780275448231F8154F1A4652
:100AB0008978C175A0F8154032F8184F1946927818
:100AC0008276048331F81B4F1A4689784177A0F863
:100AD0001B4032F81E1F927880F82020C18333F823
:100AE000212F9B7880F82330A0F82120F0BC70479C
:100AF00099701D705C705971DD701C7119729D7157
:100B0000DC71D9725D729C7299731D735C73597438
:100B1000DD731C7419759D74DC74D9755D759C75D5
:100B200099761D765C765977DD761C7783F82010F0
:100B30009D77DC7783F8231083F8215083F82240D7
:100B400087E700BF78240020B1B3830735D1062999
:100B500033D9F0B50D1FC5F38D050135AB00002667
:100B60009BB2374600F10C0401361FFA86FE75452C
:100B700044F80C7C44F8087C44F8047C4FF00002F4
:100B800004F10C04F0D803EB4306994200EB060491
:100B900011D05D1CADB2A94282556270A2700AD913
:100BA00002339BB29942E2702271627117D9A2712D
:100BB000E2712272F0BDF0BD7047013989B201EBDC
:100BC00041018B1D03440022033000F8032C00F880
:100BD000022C00F8012C03309842F6D17047F0BD8A
:100BE000002958D04B1E9BB203EB4303F0B50633EC
:100BF000C51C002718442B4613F803EC13F8024CCD
:100C000013F8016C74440333344483422744F3D112
:100C100007EB4707204EC7EB0717A6FB0736F60979
:100C20008B199A4236D2521A48BF012215F8031C7A
:100C300015F8023C15F8014C11F1000C18BF4FF0EB
:100C4000010C13F1000E02FB01F718BF4FF0010E6B
:100C500097FBF6F1271C18BF012711F0FF0108BF11
:100C6000614602FB03F393FBF6F313F0FF0308BFA7
:100C7000734602FB04F494FBF6F414F0FF0408BF7F
:100C80003C4605F8031C05F8023C05F8014C033509
:100C9000A842CBD1F0BD70472B80D52A73DF7047B7
:100CA000F0B5844D85B00646072200218248FEF744
:100CB00049FC6B78FBB9AB78804F002B70D17E4C30
:100CC0006378002B70D1A378002B6DD1E378002BD3
:100CD0006AD12379002B67D16379002B64D1A37982
:100CE000003318BF0123701E032800F2DF80DFE805
:100CF00000F0164F1C38714F3B78012B04D0AA78B6
:100D0000002ADCD0022BDAD16D4B6E4A1B68002B17
:100D100000F0C3800121082011709847CFE76A785E
:100D2000002A35D0002B40F0BA80EB78CBB1644B71
:100D30001B6803223A70E3B9634B00221A70102239
:100D400068460021FEF7FEFB3B7800228DF800206C
:100D50008DF80820042B49D8DFE803F093876D4B0A
:100D600028002B79D3B1564B1B6804223A70002B14
:100D7000E2D02A78002ADFD0544A1278002ADBD148
:100D8000534851490270012207200A709847D6E75C
:100D9000AA78002AC9D0002BC7D002233B70CBE72A
:100DA0003B78012BAED1AFE701239CE72B78A969F3
:100DB000EA69ADF80A10ADF80C20002B65D0434B62
:100DC0001978002961D1424B1B78002B5DD0414B33
:100DD000042402221846DC708DF8082000F0F2FD91
:100DE00000285FD13C4A3B7806211170002B33D09C
:100DF0002EE02B7829696A69ADF80A10ADF80C204D
:100E0000002B46D0314B1978002942D1304B1B784A
:100E1000002B3ED02F4B042402221846DC708DF8A4
:100E2000082000F0CFFD00283CD12B4A3B7805215B
:100E300011708BB10CE02848EA68AB68019401217D
:100E4000022404708DF80010ADF80C20ADF80A30C3
:100E50006846FFF723FF30B9194B1B6813B11E4AD0
:100E600010789847002005B0F0BD1B49019401227D
:100E700000230A708DF80020ADF80C30ADF80A3070
:100E8000E6E7154B00221A70E6E7134B04221A70AE
:100E9000DEE7114B03221A70DAE713700FE7012324
:100EA0003B7049E73B78002BD6D0D1E700233B705D
:100EB00042E700BF00250020F8240020462500203E
:100EC000CC2400204725002043250020F3240020C7
:100ED000BC24002080240020582500202DE9F84F54
:100EE000DDF828E0002800F09880002A00F09580C6
:100EF000144605469C460E460FCC494FDFF84491F8
:100F0000DFF844A1DFF84481DFF844B1C8F800C03D
:100F10000FC794E80F00002487E80F00414F424BB1
:100F20004248CBF800E0012289F800202146072240
:100F30004FF6FF79A3F800908AF80040FEF702FB15
:100F400021463C223846FEF7FDFA05F1100393E8EE
:100F50000300AA78EB7895F800E0BA70FB7007F10F
:100F6000100395F801C087F800E083E8030005F15D
:100F7000080393E8030007F1080E05F118038EE853
:100F8000030093E803006A6A87F801C007F11803B9
:100F900083E80300B2B1264B7B62686A254A9A60F7
:100FA000B0F804E001881980A3F804E0BEF1000F56
:100FB00008D0013A23468168C95C02F8011F013359
:100FC0007345F8D1AB6AB3B11B4BBB62A86A1B4A2D
:100FD0009A6084889C800188198044B1013A00237A
:100FE0008168C95C02F8011F0133A342F8D195F86A
:100FF0002C3087F82C302B6A33B1114B3B622A6AB4
:101000005188598012881A806B6803B17B60314621
:101010000448BDE8F84F00F0D5BC0E20BDE8F88FBD
:10102000002500208024002044250020F8240020F2
:10103000C0240020D42400204C250020242500209A
:10104000202500204825002046250020CC24002013
:10105000F424002010B50388112B82B019D01B2B6B
:101060000AD0102B01D002B010BDC37B012BFAD1E6
:10107000214B82881A80F6E7037A002BF3D11F4BAD
:101080001B78F3B908201E4B1B68002BEBD0984748
:10109000E9E7194A838812881A4900209A420870A1
:1010A000E1D1164B1B78002BECD0174B012401A883
:1010B0001C7008F015FB019BBBB1144B01221A7088
:1010C000D1E71149124C0B78013384FB0324DA1762
:1010D000C2EB640404EB84041B1BDCB201A80C709B
:1010E00008F0FEFA019B002BE7D12046FFF7D8FD60
:1010F0000028B8D0C7E700BF4425002048250020BD
:10110000F4240020F324002046250020D0240020D1
:10111000676666660238012813D830B5114C23780B
:1011200083B00BB903B030BD0F4B1B780022227087
:1011300043B908200D4B1B68002BF3D0984703B030
:1011400030BD70470A4B01A81D7808F0C9FA019B11
:1011500013B101232370E5E72846FFF7A1FD00281E
:10116000E0D0E7E7D024002048250020F424002028
:1011700046250020A0DF7047A2DF70472DE9F0432D
:1011800004468FB0154699460F4600294BD015B935
:10119000284609F051FC07A81C220021FEF7D2F9CD
:1011A0009DF81C60ADF80440002421464FF0010872
:1011B00046F00206684603228DF81C6008940A94E3
:1011C0000B940C940D948DF80680FEF7BBF99DF8F6
:1011D000022099F800308DF8003068F3420202F0E6
:1011E000E70364F3000399F801608DF802302146AB
:1011F00002A814228DF80160FEF7A4F90C4BADF89B
:10120000124002AA07A91888169BCDF80CD001AC91
:10121000ADF81050ADF8145006970294FFF7ACFFEC
:101220000FB0BDE8F083084609F006FCAFE700BF49
:10123000A4250020F0B595B014A941F60A0321F8C1
:10124000403D01230446A44A8DF812301846FFF7AA
:1012500091FF002840F0EE802288002A40F0EC80C8
:101260002289002A40F0F780228A002A40F000817B
:10127000228B002A40F00981228C002A40F0128142
:10128000228D002A40F01B81236B002B64D01A684A
:101290008DF818201A68120A8DF819205A888DF8CE
:1012A0001A20DA788DF81B205A688DF81C209B686C
:1012B0008DF81D301D0A1C221B0C00210DA88DF875
:1012C0001E508DF81F30FEF73DF99DF83430002593
:1012D00003AE42F6232E43F002030127294630468F
:1012E0000322ADF814E08DF834308DF816700E95A9
:1012F0001095119512951395FEF724F99DF80E306F
:1013000094F83C208DF80C2067F3420303F0E703C8
:1013100065F3000394F83D708DF80E3029461422D1
:1013200008A88DF80D70FEF70DF96B4A0996108824
:101330006A4BADF82A5008260DF1140E06AF08AA24
:101340000DA9CDF820E0ADF82860ADF82C600C9721
:10135000FFF712FF00286DD1636B5BB11A79196832
:101360005F4B009342F62A2004F13C03FFF706FF8F
:1013700000285FD1A06B00285CD003788DF818306E
:1013800043888DF819301B0A8DF81A3083888DF840
:101390001B301B0A8DF81C30C3888DF81D301C22B1
:1013A0001B0A00210DA88DF81E30FEF7CBF89DF822
:1013B0003430002503AE43F00203012742F6502EDD
:1013C0002946304603228DF834308DF81670ADF87A
:1013D00014E00E951095119512951395FEF7B2F83D
:1013E0009DF80E3094F83C208DF80C2067F34203F2
:1013F00003F0E70394F83D408DF80D4065F30003DA
:101400002946142208A88DF80E30FEF79BF8324AC0
:10141000099607241088334BADF82A5005AF06AE65
:1014200008AA0DA90897ADF82840ADF82C400C96F5
:10143000FFF7A2FE15B0F0BD2B4B6168009342F69A
:10144000292004F13C03FFF799FE0028F2D12289FC
:10145000002A3FF409AF254BE168009342F62420AF
:1014600004F13C03FFF78AFE00283FF4FDAEE1E7FC
:101470001F4B6169009342F6252004F13C03FFF7FE
:101480007DFE00283FF4F4AED4E71A4BE1690093E7
:1014900042F6272004F13C03FFF770FE00283FF4DA
:1014A000EBAEC7E7144B616A009342F6262004F1C5
:1014B0003C03FFF763FE00283FF4E2AEBAE70F4BB0
:1014C000E16A009342F6282004F13C03FFF756FE40
:1014D00000283FF4D9AEADE7A42500206C250020FC
:1014E0007C25002084250020742500206425002010
:1014F000942500208C2500209C2500205C250020C0
:101500006DDF704772DF704779DF70477DDF7047AE
:1015100065DF70472DE9F04F83B004880C9FBDF85C
:101520003490B7F800A0002C4CD098460023164603
:101530008B4605461C4603E02A880134A24224DD7E
:101540006A6852F82400019000220DF1030101A8FD
:10155000FFF7DEFF10BB9DF80320B242ECD103B3CE
:101560003A8893194B4518DC42440DF1030101A858
:101570000123FFF7CDFF88B93A889DF803100A448C
:101580003A802A880134A242DADCDBB13B88013B95
:10159000CAEB03039BB2FF2B12D90C2003B0BDE8AA
:1015A000F08F3B885A1C334402334B4592B2F4DC33
:1015B0003A8008F802B03A88013292B23A80D3E712
:1015C00008F80A30002003B0BDE8F08F2DE9F0479D
:1015D00000231788138090F82D3084B014460546F8
:1015E0000E46002B49D1AA78002A70D1EA78002A49
:1015F0002ED16A68A2B1D91CB94225D8022192F92C
:101600000020F154238801339BB20A212380F15436
:10161000238801339BB22380F25423880133238033
:101620002B89002B40F02A812B8A002B40F03F8130
:101630002B8B002B40F054812A6A002A00F0A780EF
:1016400021888B1DBB4262D90C2004B0BDE8F08715
:10165000D91CB942F8D80221F154238801339BB236
:1016600001212380F15423880B449BB22380F25440
:1016700023880B449BB22380BBE7082FE4D902A840
:10168000FFF73EFF0028E0D113880822CA542388C0
:1016900001339BB21B222380CA542088013080B2C0
:1016A0002080062208440DF109010AF0FAF8238887
:1016B0009DF8082006339BB212F0FE0218BF0122EB
:1016C0002380F254238801339BB223808BE70433B9
:1016D000BB42B9D802A8FFF717FF0028B5D123886D
:1016E000BDF808200321F154238801339BB219214E
:1016F0002380F154238801339BB2F1182380F254E4
:10170000120A4A70238802339BB223806EE7138843
:10171000052B40F2AF806FF4486803EB080080B2FD
:101720004FF27D3E704540F2A5805088052840F27A
:10173000A1806FF4486C84441FFA8CFCF44540F29D
:1017400099804FF6FF7E734504D0704502D08342E6
:1017500000F2908005237354238801339BB2122139
:101760002380F154238801339BB223801188F154E4
:101770003344090A5970238802339BB2238052886C
:10178000F2543344120A5A70238802332380D5F866
:101790002480B8F1000F30D0B8F804202188131D40
:1017A0000B44BB423FF650AF931CFE2B3FF64CAFB1
:1017B00003327254238801339BB2FF222380F254F8
:1017C000238801339BB22380B8F80020F2543344BD
:1017D000120A5A702088023080B22080B8F80420A3
:1017E0005AB1D8F80810002944D030440AF059F80A
:1017F000B8F8043022881344238095F82C30002B4D
:1018000040F08B80287800283FF41FAF2B88012BF5
:1018100030D023889A1CBA423FF616AF012805D172
:101820006978023119448F42FFF40EAF023FFB1A70
:1018300004A99BB221F8083DB018FFF767FE002805
:101840007FF403AF2A78022A00F0B480012A60D026
:101850001A460821FE2A3FF6F7AE2388551CF55498
:10186000238801339BB22380F154238801331A4427
:101870002280EAE6072004B0BDE8F08705F10808F9
:1018800002228DE89000404611463346FFF742FEA3
:1018900000287FF4DAAE8DE89000404633461022EF
:1018A0000621FFF737FE00287FF4CFAEBCE605F136
:1018B00010088DE890004046334602220321FFF7CE
:1018C00029FE00287FF4C1AE8DE8900040463346E3
:1018D00010220721FFF71EFE00287FF4B6AEA7E610
:1018E00005F118088DE89000404633460222142185
:1018F000FFF710FE00287FF4A8AE8DE89000404668
:10190000334610221521FFF705FE00287FF49DAE17
:1019100092E66A7893429CD29AE7D5F82880B8F18B
:10192000000FA7D0B8F804200232FE2A3FF68CAE92
:1019300023884FF000094FF0160A0132F254238831
:1019400001339BB2238006F803A0238801339BB2A6
:101950002380B8F80020F2543344120A5A702388C6
:1019600002339BB22380B8F80410F0180A4669B11C
:10197000D8F808301946002B3FF47CAF09F091FFEE
:10198000B8F80430228813449BB2238009F101097E
:1019900095F82C205FFA89F94A4509EB49087FF64A
:1019A00031AFAA6A02EB8808B8F804200232FE2A96
:1019B000C3D949E6BDF808209342FFF449AF092195
:1019C00048E700BF2DE9F04395B01F230D46ADF861
:1019D0000E300446002800F08480C27853077CD57E
:1019E00090F82D300021ADF80C10002B40F0DD8177
:1019F00083780CAF002B40F019821946032014AEF7
:101A000031445F1C023316FA87F74FF0020E16FAC4
:101A100083F601F840EC83B2012107F8401CADF8D1
:101A20000C3006F8402C6668002E00F08C80D81C24
:101A30001F2874D90C2015B0BDE8F083A76A002FC9
:101A40004BD0BA880232FE2AF4D8BDF80C304FF0E1
:101A5000000804AE4FF016091AE009F022FFBDF8A5
:101A60000C20BB8894F82C1013449BB2ADF80C30BA
:101A700008F101085FFA88F8884508EB480780F00C
:101A8000F080A26A02EB8707BA880232FE2AD1D818
:101A90000DF1500E9E44581C01320DF1500C0EF801
:101AA000402C1CFA80F09A1C92B200F8409CADF8D1
:101AB0000C203888B0543244000A50700433B7F810
:101AC00004E09BB27246F018ADF80C30BEF1000F86
:101AD000CED0BB681946002BBFD1072015B0BDE89A
:101AE000F083ADF80C00ADB1EB78002BF5D12846B2
:101AF0000CA90DF10E02FFF769FD0028EED19DF84B
:101B00000E300CAA20469DF80C10FFF7FBFC15B018
:101B1000BDE8F0832B46ADF80E502A46F2E714AF2D
:101B2000591C9A1C17FA81F13B4417FA82F296F974
:101B30000060ADF80C0002270A2003F8407C01F891
:101B4000400C02F8406C2389002B40F08F80238AE0
:101B5000002B40F0AB80238B002B40F0C780226A23
:101B6000002A42D0BDF80C30991D1F293FF662AF04
:101B700010880528B1D96FF4486C00EB0C06B6B29A
:101B80004FF27D37BE42A8D95688052EA5D96FF4ED
:101B9000486EB6441FFA8EFEBE459ED94FF6FF77BB
:101BA000B84203D0BE4201D0B04296D814A8C7189C
:101BB0005E1C10FA86F64FF0050E981C07F840ECF4
:101BC00080B2122706F8407CADF80C001788ADF8FB
:101BD0000C1004AE3118375404333F0A4F709BB2D7
:101BE0005288F2543344120A5A70676AA7B3B8880D
:101BF000BDF80C30811C9A1C56181F2E3FF61AAFE8
:101C0000FE293FF617AF14AE1E44591C0DF1500EBD
:101C10001EFA81F1033006F8400C92B2FF2001F861
:101C2000400CADF80C20398804AEB018B154090A44
:101C300041700433BA8898B2ADF80C0062B1B9684B
:101C400000293FF44AAF304409F02BFEBDF80C20C8
:101C5000BB881344ADF80C3094F82C1000297FF4A5
:101C6000EDAE2378002B61D104AC3CE703A904F16D
:101C7000080704AE4FF01F08022200913846334691
:101C8000CDF804801146FFF745FC00287FF426AF0D
:101C900003AB0093CDF8048033463846102206216A
:101CA000FFF738FC00287FF419AF50E703AA04F1CE
:101CB000100704AE4FF01F08009238463346CDF8A7
:101CC000048002220321FFF725FC00287FF406AFE1
:101CD00003AB0093CDF80480334638461022072129
:101CE000FFF718FC00287FF4F9AE34E703AA04F1EB
:101CF000180704AE4FF01F08009238463346CDF85F
:101D0000048002221421FFF705FC00287FF4E6AED0
:101D100003AB0093CDF804803346384610221521DA
:101D2000FFF7F8FB00287FF4D9AE18E72288012AD4
:101D30003FF4D3AEBDF80C20901C1F283FF67AAEBE
:101D4000012B05D16378134402331F2B3FF672AE8B
:101D5000C2F11D0314A99BB204AE21F8203D30440A
:101D6000FFF7D4FB00287FF4B9AE2278022A00F0F6
:101D70008780012A00F08B80ADF830301A460820A9
:101D8000FE2A3FF657AEBDF80C3014AC591CE718CC
:101D900014FA81F102331344013207F8402C34461F
:101DA000ADF80C3001F8400C9DE60CAF3846FFF75B
:101DB000A7FB00287FF492AEBDF80C3014A903F104
:101DC000010E9A1C11FA8EFE0B4492B204AEB018AA
:101DD00008211B2603F8401CADF80C200DF1310141
:101DE00006220EF8406C09F05CFDBDF80C209DF851
:101DF0003010931D11F0FE019BB23BD114A8034497
:101E000003F8401CD31DA2789BB2ADF80C304AB940
:101E1000E278002A3FF407AED81C1F2819463FF687
:101E200009AEECE504331F2B3FF604AE3846FFF74E
:101E30006BFB00287FF452AEBDF80C30BDF83010BB
:101E4000E2785F1C14AE16FA87F71E44981C4FF018
:101E5000030E06F840EC80B204AE4FF0190E07F8FE
:101E600040EC0433371831549BB2090AADF80C30FA
:101E70007970CEE714A90B44012103F8401CC1E797
:101E8000BDF830209342FFF477AF092078E76278FD
:101E90009342FFF471AFADF83020082070E700BF27
:101EA00075DF704776DF70477ADF70477BDF7047FA
:101EB000184B18884FF6FF7398422AD010B5164A6F
:101EC000164C1378217B0133DBB2994282B0137038
:101ED0000CD2237C002111708BB9636923B102A855
:101EE000002200F8042D984702B010BD0C49FFF7FE
:101EF000D7FF0028F8D0A369002BF4D1F4E73B21E9
:101F0000FFF7D0FF0028E8D0A369002BE5D0984761
:101F1000E3E77047F0250020B0250020B42500201D
:101F2000F425002070B51E4B1E4A5B88118899422B
:101F300082B00FD852889A420CD31B4B5B6923B1F5
:101F400002A8012200F8042D9847184C00232370A2
:101F500002B070BD154C227862B1134B5B69002B47
:101F6000F4D002A8002200F8042D98470023237023
:101F700002B070BD0C4D0E4869680678AB680D481C
:101F8000002E18BF194608F0C1FC0028DED0AB694E
:101F9000002BDBD098470023237002B070BD00BF38
:101FA000A8250020F4250020B4250020A625002027
:101FB000B0250020D0250020F8B505460FCD144CE3
:101FC000144F0FC4064695E80700002384E8070075
:101FD0003B70B6B13068104B716803C3A3F10800C1
:101FE000FFF762FF90B90D4D0D4C0E4A0E480023CD
:101FF0004FF6FF762E8023701946BDE8F84008F0B2
:1020000073BC0548FFF752FF0028ECD0F8BD00BFB5
:10201000B4250020A6250020F4250020F02500206E
:10202000B0250020B11E0200C8C2020070B50388AE
:10203000112B27D012D9122B07D0502B47D1244C6B
:10204000C288E3899A4230D070BD083003C8214B62
:1020500083E80300BDE87040FFF764BF102B35D163
:102060001D491B4C1B4B1D4DE48900F1100280885B
:10207000088092E80300002283E803002A70002C05
:10208000E8D070BD1449154B15484FF6FF74002277
:102090000C801A7008F092FC0028D5D00C4B9B697C
:1020A000002BD1D0BDE870401847038A022BCBD15A
:1020B000123000F01FF90028CCD1094808F07EFC4E
:1020C0000028C1D0A369002BECD1BDE770BD70BD65
:1020D000B4250020A8250020F0250020B0250020F0
:1020E000D02500200388112B6FD02DE9F0431A2B47
:1020F00089B0064650D0102B02D009B0BDE8F0835D
:10210000DFF8E49099F8152099F8143009F10401EA
:1021100023EA020203A808F079FE039F87B1002496
:10212000A0460DF10E052F4935F8023FCDF800808D
:102130000134A1F110001D2208F030FDA742F2D1B8
:1021400099F81400B788284CC043C0B208F0C4FC0A
:102150004FF6FF7398423FD004EB40053A4604F136
:102160001501201D0123AF8008F0DAFC3A4604F186
:102170001401201D012308F0D3FCF37BB288A3F1E6
:102180000203B3FA83F35B0904F11601201D09B0C1
:10219000BDE8F04308F0C4BC037A144982881F2BC1
:1021A00094BF00230123A1F1130008F0B9FC337A96
:1021B0000F49B2882F2B94BF00230123A1F11400F3
:1021C00009B0BDE8F04308F0ABBC0A49828800239F
:1021D000A1F1110008F0A4BC042009B0BDE8F0434F
:1021E00008F02ABC10260020FC2500201326002021
:1021F000142600201126002038B5094C0546024659
:10220000217D201D08F0D2FD40B12A46A17D201D70
:1022100008F0CCFD002814BF0220012038BD00BF0B
:10222000FC250020024B0246D97D181D08F0BEBDDA
:10223000FC250020024B0246197E181D08F0B6BD91
:10224000FC25002010B5044904460A7D043108F03D
:10225000DDFD204610BD00BFFC25002030B40A4D36
:1022600000232968012401E0182B0AD004FA03F2A4
:102270000A42D8B203F10103F6D10A432A6030BC06
:102280007047184630BC7047FC25002030B4084D1C
:1022900001232C688B40234002D1184630BC704784
:1022A00029440246497E281D30BC08F07FBD00BF8E
:1022B000FC25002070B4084D01242E688C40344267
:1022C00001D170BC70472944134619310246281DBC
:1022D00070BC08F025BC00BFFC2500200449012388
:1022E0000A68834013401ABF4018407E1846704762
:1022F000FC250020007800F00100704738B5044646
:1023000008460D4609F0CEFB6560208038BD00BF51
:1023100030B585B0054600F04DFB112842D004468B
:1023200017D880B30C281CD1072328468DF8043019
:10233000ADF8085000F06CFEADF8060001A803F0FF
:1023400051F90022184B28461978FFF7B3FF05B062
:1023500030BD862815D043F20203984201D10022F5
:10236000F0E7092328468DF8043000F051FEADF85F
:10237000060001A8ADF80850039403F033F90022D9
:10238000E0E70823D1E7012328468DF80430ADF8B3
:10239000085000F03DFEADF8060001A803F022F958
:1023A0002246CFE70122CDE73226002030B585B0A6
:1023B000054600F047FB0B2831D004460FD9112801
:1023C0000BD043F20203984219D100221B4B28463E
:1023D0001978FFF76FFF05B030BD0122F6E770B93D
:1023E000022328468DF8043000F012FEADF80600F6
:1023F00001A8ADF8085003F0F5F82246E6E70923F6
:1024000028468DF8043000F003FEADF8060001A860
:10241000ADF80850039403F0E5F80022D6E7032353
:1024200028468DF8043000F0F3FDADF8060001A851
:10243000ADF8085003F0D6F80022C7E73326002095
:102440002DE9F04788B003A8FFF7FCFE039F9FB378
:10245000DFF8F080DFF8F0A00DF10E06002402E0B6
:102460000134BC4228D036F8025F98F800102846A4
:10247000FFF70CFF0028F3D09AF800102846FFF76A
:1024800005FF81460028EBD1284600F05DFB0828B7
:10249000034617D013D943F2020290424BD043F2C5
:1024A0000142904233D14FF6FF739D4247D02846F8
:1024B000FFF77CFF01220DE008B0BDE8F087A8B16E
:1024C000062826D1284600F0A3FD4FF0000900F0B1
:1024D00051FB4A4698F800102846FFF7EBFE4A46A3
:1024E00028469AF80010FFF7E5FEB9E705232846CD
:1024F0008DF8003000F08CFD4FF00109ADF80200BE
:102500006846ADF8045003F06DF84A46E2E711283A
:1025100011D0092228468DF800200293ADF804500E
:1025200000F076FDADF80200684603F05BF84FF06E
:1025300000090122CEE74FF000090122CAE701227B
:10254000C8E700BF302600203126002010B50378F0
:1025500084B00446012B4088ADF8060017D005D39F
:10256000022B01D12379E3B904B010BD04A80023E4
:1025700000F80C3D03F036F8608800F063FE4FF67B
:10258000FF739842F0D0FFF711FF04B010BDA2888E
:10259000ADF8082001A88DF8043003F023F804B04A
:1025A00010BD00F04FFE4FF6FF739842DCD0064C92
:1025B00001222178FFF77EFE2078FFF78FFE0028AA
:1025C000D2D0FFF73DFFCFE730260020F0B50578E9
:1025D000012D85B01CD144884FF6FF739C420646FE
:1025E000204612D000F02EFA0B28074629D019D920
:1025F000112838D043F20203984224D100221B4B09
:1026000020461978FFF756FE708800F08BFA08B95B
:1026100005B0F0BD164B708819780122FFF74AFE0D
:1026200005B0F0BD78B9022320468DF8043000F0E3
:10263000EFFCADF8060001A8ADF8084002F0D2FFAB
:10264000DCE70323F0E7092320468DF8043000F08F
:10265000DFFCADF8060001A8ADF80840039702F0D2
:10266000C1FF0022CBE72A46C9E700BF332600207E
:102670003026002070B50578072D84B001D004B055
:1026800070BD4688304600F095F9112804461FD0E9
:1026900016D8B0B30C2824D130468DF80450ADF8CC
:1026A000086000F0B5FCADF8060001A802F09AFF42
:1026B00000221B4B30461978FFF7FCFD04B070BDBB
:1026C000862807D043F2020398420AD10022F0E79D
:1026D0000122EEE708233046ADF808608DF804309B
:1026E000DFE7092330468DF8043000F091FCADF8A7
:1026F000060001A8ADF80860039402F073FF002201
:10270000D7E7012330468DF80430ADF8086000F0BB
:102710007FFCADF8060001A802F064FF2246C8E77E
:102720003226002070B5FFF799FD0F4C0F4D207039
:10273000FFF794FD2870FFF791FD0D4E3070FFF705
:102740008DFD23780B4A182B10700AD02B78182B8C
:1027500007D03378182B04D018280CBF0320002092
:1027600070BD032070BD00BF32260020332600203C
:1027700030260020312600202DE9F0470388522B17
:1027800088B004467CD0542B61D0502B16D0DFF893
:102790000C81404F3878FFF7A1FD00283AD13E4F19
:1027A0003878FFF79BFDD0B998F80000FFF796FD49
:1027B00008B1FFF745FE08B0BDE8F087037B012BA9
:1027C000E5D1837A012BE2D1028942F602139A42C3
:1027D000DDD18088DFF8C480FFF79AFDD9E703A830
:1027E000FFF730FDDDF80C90B9F1000FDCD00DF1F2
:1027F0000E06002401E0A145D6D036F8025F3978F4
:102800002846FFF743FD01340028F4D02846FFF79F
:102810007FFDF0E703A8FFF715FDDDF80C90B9F197
:10282000000FBCD00DF10E0600244FF6FF7A36F8EB
:10283000025F39782846FFF729FD013420B155455C
:10284000284601D0FFF7B2FD4C45F0D1A7E706239B
:1028500080888DF8003000F0DBFBDFF84080A38833
:10286000ADF80200ADF8043000F084F9A08898F8C3
:1028700000100022FFF71EFD684602F0B3FE88E755
:1028800080884FF6FF73984281D0FFF78FFDDFF805
:102890000C807EE7332600203226002030260020E0
:1028A0002DE9F04186B000F00FF901A8FFF7CAFC4E
:1028B000019EDFF85880DEB100244FF6FF7703E079
:1028C0000134A4B2A64213D906AB03EB440333F898
:1028D000105C284600F09CFBB842F1D10134284638
:1028E000012298F80010A4B2FFF7E4FCA642EBD84E
:1028F00098F80000FFF7F2FC10B906B0BDE8F081CF
:1029000006B0BDE8F041FFF79BBD00BF30260020B8
:10291000A7DF7047A9DF7047AADF704770B503785B
:10292000012B84B023D01D4C23884FF6FF75AB429A
:102930001BD01B4A92E8030002AE86E80300002287
:102940001846314602F09EFB2388AB420BD10CE0C7
:10295000184602F087FB00223146208002F092FBED
:102960002388AB4201D01128F2D104B070BD0579A3
:10297000012D0446D7D102AA2946408801F040FE25
:102980000028D0D16388ADF80230684602238DF864
:1029900004508DF80030FFF7D9FDC4E7342600203D
:1029A000CCC20200024B4FF6FF721A800020704723
:1029B000342600202DE9F04182B0074600F028FBC4
:1029C0004FF6FF73984237D0054601264FF00308B3
:1029D0006B4632460821284601F016FE032300BB51
:1029E000019A3846911D42F8048BFFF795FF044683
:1029F000E0B10C280ED005284FF00801284608BF8A
:102A0000002402F0A1F8002818BF0324204602B0D9
:102A1000BDE8F081013608212846B6B202F094F8EC
:102A2000D6E7072814BF04460C24EFE72846082100
:102A300002F010FB0446E9E743F2020002B0BDE8F1
:102A4000F08100BF2DE9F04182B0074600F0E0FAC6
:102A50004FF6FF73984204D06A46082101F0D0FD7A
:102A600038B30026354603244FF00108234632468A
:102A700029463846FFF74EFF04280AD008280AD016
:102A80000B280AD0B8F1000F08BF0B2002B0BDE838
:102A9000F0811120F6E70020F4E714F0020406D1DB
:102AA00065B12646254603244FF00008DEE70124E1
:102AB000FAE7019DAE882C680635D5E7002EE5D0F3
:102AC0002E460324F0E700BF70B54FF6FF7082B0CA
:102AD00002F0C8FA114A124C034692E803000022A1
:102AE0008DE8030018466946238002F0CBFA23885C
:102AF0004FF6FF76B3420ED06D460AE0184602F05C
:102B0000B1FA00222946208002F0BCFA2388B342A1
:102B100001D01128F2D102B070BD00BFCCC20200BA
:102B20003426002000B583B000F072FA6A46012115
:102B300001F066FD20B9019B187803B05DF804FB35
:102B4000002003B05DF804FB70B5094E33880546DC
:102B500043F2030419464FF6FF722846FFF7D8FEEA
:102B60000133A0429BB200D070BD3380F2E700BFBA
:102B70003626002010B5074B044693E8030082B0C8
:102B80008DE8030000226946204602F07BFA02B07D
:102B900010BD00BFD4C2020043DF70470388102B72
:102BA00000D070472DE9F043041D0FCCA1B013AD48
:102BB0000FC50FCC0FC50FCC0FC59DF85030226844
:102BC0002A6003F0FE03062B00F0A48000F098FDBD
:102BD0009DF850305B08012B40F2E780022B40F05B
:102BE000998005AE0DF1060532462946072000F012
:102BF0008FFD002800F08E809DF8503003F0FE031A
:102C0000042BF1D1069C03220DF1510102A808F01A
:102C100048FE032215A904A808F043FE237C8DF882
:102C20001C30E37B8DF81D30A37B8DF81E30637B59
:102C30008DF81F30237B8DF82030E37A8DF821301A
:102C4000A37A8DF82230637A8DF82330237A8DF8B9
:102C50002430E3798DF82530A3798DF82630637917
:102C60008DF8273023798DF82830E3788DF82930D6
:102C7000A3788DF82A3063788DF82B300D2200214F
:102C80000BA8FCF75FFC9DF810109DF811209DF833
:102C900012308DF83B1007A88DF83A208DF83930A6
:102CA000FFF77AFF9DF84B209DF84A409DF8493088
:102CB0008DF80C2003A9032202A88DF80D408DF891
:102CC0000E3008F0DFFD00288ED1BDF84C60BDF855
:102CD00006704FF6FF739E4222D14FF6FF739F425C
:102CE00015D0BDF84C40654B20461978FFF7CEFA59
:102CF000B8BB20AC012304F8643DBDF84C30ADF8FE
:102D00001E30204602F0CAFC2046FFF75FFC21B0CF
:102D1000BDE8F083BDF84C604FF6FF77BE42F6D0B9
:102D2000DFF85881564D98F8001001223046FFF721
:102D3000C1FA98F800103046FFF7A8FA002852D1DF
:102D4000DFF83C910024B9F8020098F80010FFF772
:102D50009DFA09F10C09002861D00134082CF2D148
:102D6000BBE7474D6B88A3426DD0EB89A3426CD083
:102D70006B8BA3426BD0EB8CA34214D06B8EA3421F
:102D800069D0EB8FA3426AD0B5F84A30A34268D02D
:102D9000B5F85630A34208BF0723AAD103EB43037B
:102DA00025F82370A5E70323F8E705AE0DF1060526
:102DB00032462946072000F0ABFC0028AAD006992D
:102DC00011F1110FF4D09DF850204B7C534013F0BB
:102DD000FE0FEDD1123106220DF1510008F052FD27
:102DE0000028E5D171E76B88B34232D0EB89B3425A
:102DF00033D06B8BB34236D0EB8CB34235D06B8E75
:102E0000B34234D0EB8FB34233D0B5F84A30B3423B
:102E100031D0B5F85630B34208BF072490D1E4B2A0
:102E200004EB440414ABA40093E803002A1902F154
:102E30000803506023F8021B4FF6FF70090C28535B
:102E40005680197049E70023A8E70123A6E702236B
:102E5000A4E70024E3E70423A0E70124DFE7052338
:102E60009CE706239AE70224D9E70324D7E7042442
:102E7000D5E70524D3E70624D1E700BF9826002034
:102E800038260020037813B90179072900D070474C
:102E9000F0B589B0044602AA408801F0B1FB08B140
:102EA00009B0F0BD00F02CFC04AA0DF106010720CA
:102EB00000F02EFC0028F3D06288BDF806309A425C
:102EC000F2D0039D6B78F3B9AB78E3B9EB78D3B963
:102ED0002B79C3B96B79B3B9AB79A3B9EB7993B952
:102EE0002B7A83B96B7A73B9AB7A63B9EB7A53B93E
:102EF0002B7B43B96B7B33B9AB7B23B9EB7B13B92A
:102F00002B7C002BD0D0059E1022711C681C08F071
:102F1000B9FC074616F1110006D06A7C737C534059
:102F200013F0FE0F36D000208FBB294A638811882A
:102F300099424BD09189994246D0118B994241D008
:102F4000918C99423CD0118E994237D0918F994201
:102F500032D0B2F84810994227D0B2F854109942B2
:102F600008BF072122D04FF6FF7406A80021BDF844
:102F70000620ADF81A40ADF81C308DF81810ADF8E9
:102F80001E2002F08BFB06A8FFF720FB88E7002835
:102F90008AD0CAE706F1120105F11200062208F0F4
:102FA00071FCB0FA80F04009BEE7062101EB410157
:102FB00002EB81025488D8E70521F7E70421F5E701
:102FC0000321F3E70221F1E70121EFE70021EDE71B
:102FD000382600200C4B10B54FF6FF720B4C5A8070
:102FE0001821DA815A83DA845A86DA87A3F84A20CC
:102FF000A3F856202170FFF731F9182820700CBF74
:103000000320002010BD00BF382600209826002095
:1030100010B51C4B19780446FFF738F910B94FF674
:10302000FF7010BD184B5A88A2421DD0DA89A24207
:103030001CD05A8BA2421BD0DA8CA2421AD05A8ED4
:10304000A24219D0DA8FA24218D0B3F84A20A24285
:1030500016D0B3F85620A24208BF0722DFD102EBF8
:10306000420233F8220010BD0022F8E70122F6E701
:103070000222F4E70322F2E70422F0E70522EEE75A
:103080000622ECE7982600203826002038B5214B90
:103090000D4619780446FFF7F9F810B905221046D5
:1030A00038BD1D4B5A88A24226D0DA89A24225D0CB
:1030B0005A8BA24224D0DA8CA24223D05A8EA2424A
:1030C00022D0DA8FA24221D0B3F84A20A2421FD0E8
:1030D000B3F85620A24208BF0722DFD102EB42021A
:1030E00003EB8203002253F8040F286099889B7930
:1030F000AB71A980104638BD0022EFE70122EDE751
:103100000222EBE70322E9E70422E7E70522E5E7ED
:103110000622E3E7982600203826002008B502881A
:103120008AB983787BB9C3786BB903795BB9437982
:103130004BB983793BB9C3792BB9037A1BB9437A6D
:103140000BB9184608BD0B88934201D0002008BD7A
:1031500002310822023008F095FBB0FA80F04009F5
:1031600008BD00BF30B585B00446851C00F0C8FA24
:1031700002AA0DF10601072000F0CAFA002857D074
:1031800023880399002B35D1A278002A54D1E37803
:10319000002B42D12279002A3FD16279002A3CD10A
:1031A000A279002A39D1E279002A36D1227A002A7E
:1031B00033D1627A002A30D1E378002B33D12279DF
:1031C00052B9627942B9A27932B9E27922B9227A46
:1031D00012B9627A002ACBD04A8D9A42C8D12C31DA
:1031E0000822284608F04EFB0028C1D1BDF8060091
:1031F00005B030BDB1F846209A42EDD148310822E1
:10320000284608F03FFB0028F0D023880399002BC4
:10321000E2D1A278002ACFD0DEE7B1F84620002A1A
:10322000ECD0002BCBD04A8D00239A42A0D1D6E718
:103230004FF6FF7005B030BDB1F84620002ADDD052
:10324000CAE700BF194B1A88824222D09A8982426B
:1032500021D01A8B824220D09A8C82421FD01A8EA3
:1032600082421ED09A8F82421DD0B3F848208242FB
:1032700008D0B3F85420824208BF072203D04FF68B
:10328000FF707047062202EB420203EB820358886C
:1032900070470022F7E70122F5E70222F3E7032255
:1032A000F1E70422EFE70522EDE700BF3826002012
:1032B000038893B9837883B9C37873B9037963B901
:1032C000437953B9837943B9C37933B9037A23B9BD
:1032D000407A003018BF012070470120704700BFBE
:1032E00038B51C4B0D4619780446FEF7CFFF00B9E0
:1032F00038BD194B5A88A2421DD0DA89A2421CD08F
:103300005A8BA2421BD0DA8CA2421AD05A8EA24209
:1033100019D0DA8FA24218D0B3F84A20A24216D0B0
:10332000B3F85620A24208BF0722E1D102EB4202C5
:1033300023F8225038BD0022F8E70122F6E70222E6
:10334000F4E70322F2E70422F0E70522EEE7062283
:10335000ECE700BF9826002038260020F8B53C4C4A
:1033600022888242034659D0A289824258D0228BB9
:10337000824257D0A28C824256D0228E824255D0B1
:10338000A28F824254D0B4F84820824209D0B4F8C7
:103390005420824208BF072204D0BDE8F84000F064
:1033A00035BF062202EB420204EB82021846558822
:1033B000274F00F02BFF4FF6FF739D42064600D0CB
:1033C00008B13046F8BD234B28461978FEF75EFF5A
:1033D0000028F6D07B88AB422ED0FB89AB4229D0A7
:1033E0007B8BAB4230D0FB8CAB422BD07B8EAB4285
:1033F00026D0FB8FAB4221D0B7F84A30AB4225D064
:10340000B4F85630AB4208BF0723DAD103EB4303CD
:103410004FF6FF7224F823203046F8BD0022C1E7A2
:103420000122BFE70222BDE70322BBE70422B9E77E
:103430000522B7E70123E9E73346E7E70523E5E798
:103440000423E3E70323E1E70223DFE70623DDE7C5
:103450003826002098260020F0B58BB008220021E5
:1034600001A8FCF76FF84FF6FF7001F0ABFE4FF6C6
:10347000FF76B04218BF044608D12CE001F050FEA0
:10348000204601F09FFEB042044624D0A4F58045BA
:10349000ADB2284601AA03A905F070FF0A2820460C
:1034A000ECD00F4E3778B7B928460125357005F0B6
:1034B000B7FE0828034610D068B10921FF2206A8EC
:1034C0003770ADF81A40089709938DF818108DF8E9
:1034D0001C2000F071FB0BB0F0BD024B1D70FAE731
:1034E000A5260020A426002070B54168047884B089
:1034F000B1FA81F35B09621E0393042A0AD8DFE85C
:1035000002F033335013030004A8082300F8103DE1
:1035100000F052FB3D4C23783C4A1BB10023137052
:10352000FFF79AFF04B070BD838903F580439BB217
:1035300043F6FE729342EDD8C289002AEAD1FF22F7
:10354000ADF802308DF80420002950D007238DF803
:1035500000302F4A2D4C002323701370FFF77CFF9F
:10356000684600F029FBD6E78389C28903F58043CA
:103570009BB243F6FE75AB422DD8012CADF802305C
:103580008DF804203AD000290CBF012304238DF8C4
:10359000003083680293684603911C4C00F00CFBDA
:1035A000B9E78389C28903F580439BB243F6FE7471
:1035B000A34216D8002981680291684614BF0521EC
:1035C0000221ADF802308DF804208DF800100F4C68
:1035D00000F0F2FA9FE702F58046B6B2AE4299D803
:1035E000CBE702F58045ADB2A54293D8E2E7184695
:1035F00006238DF8003001F093FDAAE700290CBFE7
:10360000002303238DF80030C3E700BFA426002069
:10361000A526002010B518488AB005F053FB10B15C
:1036200003200AB010BD05F061FB10B186200AB07E
:1036300010BD019001F02AFD01980822014605A85D
:10364000FBF780FF0DE007A805F0DAFC039B9C88E0
:1036500004F58044A4B207A805F0F6FC204601F06A
:103660002BFD07A905AA4CF2070005F069FE03A986
:103670000028E8D00020D4E7E9340200FF2801D96F
:1036800007207047F0B5012987B004D00C1F042C27
:1036900001D9072014E00D4604460021164601A872
:1036A00008221F46FBF74EFFA4F58040A5F5804198
:1036B00080B201AB03AA89B205F026FE10B1052045
:1036C00007B0F0BD01A903A805F09AFC0028F6D1C7
:1036D000019BB5705B8833802FB139689A008A42AC
:1036E00008D20420ECE7029B736003A805F0ACFC51
:1036F0000020E5E77068029908F0D3F8F5E700BF0D
:10370000082200210148FBF71DBF00BF9C260020B6
:1037100070B5044686B0A0F580400E46154680B2CE
:1037200003A90E4A05F00CFE10B1002006B070BDD2
:1037300001A903A805F064FC0028F6D1019BAC7038
:103740005988029A29806A609B8803F5804303A800
:10375000338005F079FC012006B070BD9C26002066
:1037600008B58278012A034604D0043A042A01D914
:10377000072008BD0846198805F08AFC072806D0EE
:10378000092803D000280CBF0020032008BD862094
:1037900008BD00BF00B583B002AB43F8040D184666
:1037A00005F0B8FC002814BF0320002003B05DF82A
:1037B00004FB00BF70B58CB0FF28019202D907202E
:1037C0000CB070BD8A78012A02D0141F042CF6D8E0
:1037D000A2F5804296B2A0F580440A88ADF80C208C
:1037E0001D464B68029302A90123A4B20822079147
:1037F00004A80021ADF82030ADF81840ADF81A60EB
:10380000FBF7A0FE3146204604AB09AA05F07CFD7B
:1038100088B1019B23BB06A909A805F0A5FC0E28C9
:103820001CD8DFE800F0141B1B1B1B1B1B12101BFA
:103830001B1B1B1B100001A805F06CFC06A909A8A6
:1038400005F0CEFCEBE71120BAE78620B8E76DB1B2
:10385000294609A805F0B0FD0020B1E70320AFE735
:1038600001AA06A909A805F09DFCD8E72846A7E704
:103870004FF6FF7001F020BCFF2801D907207047E8
:1038800008B501F039FCFFF7E7FD002008BD00BFD7
:1038900001F05ABC01F062BC01F094BC2DE9F04F7C
:1038A000DFF80883B8F8002083B000238242009339
:1038B00001938DF8021026D0B8F81430834200F03E
:1038C000D780B8F82830834200F0D480B8F83C3074
:1038D000834200F0EB80B8F85030834200F0E4807F
:1038E000B8F86430834200F0DD80B8F87830834265
:1038F00000F0D680B8F88C30834200F0C7800520F5
:1039000003B0BDE8F08F1A469400A51808EB8505B2
:10391000A64BAD788D4200F0BF80B3F88C20824278
:1039200000F0D2804FF003094FF0040C4FF0050E69
:103930000627072602229D8A854202F1FF3425D000
:10394000082ADCD01C8D844247D0B9F1080FD6D0AC
:103950009C8F84423FD0BCF1080FD0D0B3F85040C8
:1039600084423CD0BEF1080FC9D0B3F86440844211
:103970002FD0082FC3D0B3F87840844231D0082E1E
:10398000BDD0B3F88C408442B9D134464FEA840AA2
:103990000AEB040508EB8505AD788D420FD00132A6
:1039A000092A03F1140306F1010607F101070EF1DC
:1039B000010E0CF1010C09F10109BCD19FE754443F
:1039C00008EB8404637CDB070DD5002003B0BDE861
:1039D000F08F7446DAE74C46D8E71446D6E76446DB
:1039E000D4E73C46D2E705460E467148217C02F0FA
:1039F00055F858B3E3688DF8026003EB83031B01AD
:103A00009BB29B08711E0190ADF80030072908D8C1
:103A1000DFE801F004070707070432360123ADF899
:103A2000003004F10803694628466268FFF7C2FEC9
:103A3000637C03F00603062B0CD080B1112837D02D
:103A4000862800F0A78007283FF45AAF032003B070
:103A5000BDE8F08F574A1368013B1360EDE7637CC4
:103A600043F0010360F3820360F34103637447E7AB
:103A7000012249E7022247E71423ADF80030D0E7DE
:103A8000838809339B08ADF80030CAE798F88E3078
:103A90008B4219D107221C24144408EB840491E7BB
:103AA000062231E705222FE704222DE703222BE728
:103AB0004049637C0A6843F0040301326FF3410319
:103AC0000A60637400201BE7384B4FF0070C4FF07F
:103AD000060E05270426032502224FF001099C8AC1
:103AE00084424BD0082A3FF40AAF1C8D84424FD049
:103AF000082D3FF404AF9C8F844247D0082E3FF43A
:103B0000FEAEB3F8504084423ED0082F3FF4F7AEEB
:103B1000B3F86440844235D0BEF1080F3FF4EFAEF5
:103B2000B3F8784084422BD0BCF1080F3FF4E7AEE5
:103B3000B3F88C4084427FF4E2AE64464FEA840AD4
:103B40000AEB040B08EB8B0B9BF802B08B453FF4A0
:103B500036AF09F10109B9F1080F03F1140302F1BD
:103B6000010205F1010506F1010607F101070EF159
:103B7000010E0CF1010C3FF4C2AEB0E74C46DDE79C
:103B80007446DBE73C46D9E73446D7E72C46D5E711
:103B90001446D3E70749637C0A6803F0FB0301324C
:103BA00043F002030A606374AAE600BF28290020DC
:103BB000CC290020C82900202DE9F04FBA4C4388B9
:103BC000218887B00022054699420079029203922B
:103BD000ADF80A308DF80C000492059275D0A28AD7
:103BE0009A4200F09A81228D9A4200F09881A28F29
:103BF0009A4200F0D881B4F850209A4200F0D18166
:103C0000B4F864209A4200F0CA81B4F878209A424D
:103C10005AD0B4F88C209A4200F0BA802B78092B45
:103C20001DD8DFE813F00E000E00EA0069016901FB
:103C3000F9000A0119012A01E500737CDF0700F190
:103C40007D81AB68994E0493012306F114058DF82C
:103C5000083056F8043B02A89847AE42F9D1944B7D
:103C60001B6813B907B0BDE8F08F8F4E0025AF0079
:103C70007B1904EB83035B7C59071DD5B178308831
:103C8000CB1F012B13D98B4EADF80A008DF80C1009
:103C9000072004900923854C8DF8083054F8043B24
:103CA00002A89847B442F9D107B0BDE8F08FFFF7FA
:103CB000F5FD002840F0E6810135082D06F11406D7
:103CC000D5D107B0BDE8F08F062291008F1804EB24
:103CD0008707754EBF78874261D0B6F88C209A422C
:103CE00000F063814FF0070B4FF0060A4FF0050913
:103CF0004FF004084FF0030C0227B18A994207F1F4
:103D0000FF322CD0082F89D0328D9A426ED0BCF170
:103D1000080F83D0B28F9A4266D0B8F1080F3FF4F3
:103D20007DAFB6F850209A425CD0B9F1080F3FF44D
:103D300075AFB6F864209A4252D0BAF1080F3FF43A
:103D40006DAFB6F878209A4248D0BBF1080F3FF427
:103D500065AFB6F88C209A427FF460AF5A46910066
:103D600001EB020E04EB8E0E9EF802E0864516D0A3
:103D70000137092F06F114060CF1010C08F10108B6
:103D800009F101090AF1010A0BF1010BB5D145E76F
:103D900094F88E20824240F0088107221C212B7863
:103DA0000A4404EB8206092B3FF659AF01A252F8F0
:103DB00023F000BF3B3C02003B3C0200FB3D020005
:103DC000F13E0200F13E0200193E02003B3E0200BD
:103DD000593E02007B3E0200F13D02005246BEE722
:103DE0004A46BCE74246BAE76246B8E73A46B6E713
:103DF0002F4BEA6804921B6833E72C4D032305F12F
:103E000014068DF8083055F8043B02A89847AE42D6
:103E1000F9D1274B1B6824E7EB68244E0493042355
:103E200006F114058DF8083056F8043B02A89847AF
:103E3000AE42F9D11E4B1B6813E71C4D052305F15B
:103E400014068DF8083055F8043B02A89847B5428F
:103E5000F9D1174B1B6804E7EB68144E0493062353
:103E600006F114058DF8083056F8043B02A898476F
:103E7000AE42F9D10E4B1B68F3E60C4D072305F15A
:103E8000140637468DF8083055F8043B02A89847C9
:103E9000BD42F9D1064B1B68002B3FF4E3AEDFF8BF
:103EA000088000250EE000BF28290020E4C202009F
:103EB000C8290020F8C202000135082D08F11408B5
:103EC0003FF4D0AEAF007B1904EB83035B7C5A0751
:103ED00001D49B07F0D598F80210B8F80000CB1F6A
:103EE000012B3FF6D1AEFFF7D9FC0028E4D0CAE0A1
:103EF000B268AB689A4214D0EB686A4E059302230D
:103F000006F114058DF8083056F8043B02A89847CE
:103F1000AE42F9D1644B1B68A3E60122D5E602222A
:103F2000D3E6727CD007E7D55F490B6802F0FE024A
:103F300042F00402013372740B6092E6F3680027CA
:103F40004BB1317C59483944C9B201F0BFFDF36827
:103F500001379F42F5D3737C524F03F0F9036FF39F
:103F600000034FF6FF727374FF210023F360736048
:103F7000B3603280B27031742A788DF80830A2F1C3
:103F80000103B3FA83F35B098DF8103007F11405D0
:103F900057F8043B02A89847AF42F9D15FE60522E3
:103FA00093E6042291E603228FE602220090404E1F
:103FB0004FF0070B4FF0060A4FF005094FF00408C9
:103FC0004FF0030C4FF0010E104645E0BCF1080F16
:103FD0003FF424AEB28F9A4250D0B8F1080F3FF4AC
:103FE0001DAEB6F850209A424AD0B9F1080F3FF4FE
:103FF00015AEB6F864209A423ED0BAF1080F3FF4ED
:104000000DAEB6F878209A4234D0BBF1080F3FF4D9
:1040100005AEB6F88C209A427FF400AE5A46910065
:104020008F1804EB87070191B978009FB9421FD020
:104030000EF1010EBEF1080F06F1140600F10100A9
:104040000CF1010C08F1010809F101090AF1010A5A
:104050000BF1010B3FF4E2ADB18A99427246DED01A
:1040600008283FF4DBAD328D9A42AFD10246D6E745
:10407000019994E65246D2E74A46D0E76246CEE737
:104080004246CCE70B4E7B199B00E2188628E35A88
:104090009278ADF80A308DF80C2008BF08233FF461
:1040A000FAADF6E5E4C20200C8290020CC290020C0
:1040B00028290020F8C20200F0B54F4A4F4B547C2B
:1040C00092F8257092F8396092F84D504C49FF20D3
:1040D00004F0F90410746FF30004002007F0F907EE
:1040E00006F0F90605F0F90560F3000760F3000635
:1040F00060F3000554744FF6FF7482F82570D060A9
:104100005060906010629061D0615063D062106323
:1041100090641064506482F8396082F84D501480C5
:1041200094709482947582F82440148582F82A4011
:1041300082F83840948782F83E4082F84C4092F8EA
:1041400061E092F8757092F8896092F89D50A2F83B
:10415000504085B00EF0F90E07F0F90706F0F906A9
:1041600005F0F90560F3000E82F8524060F3000795
:1041700060F3000660F3000582F86040D06550658A
:104180009065A2F8644082F8664082F87440106737
:104190009066D066A2F8784082F87A4082F888402B
:1041A000C2F88400D067C2F88000A2F88C4082F880
:1041B0008E4082F89C40C2F89800C2F89000C2F885
:1041C00094004FF0500C0820012482F861E082F83E
:1041D000757082F8896082F89D50CDF808C04FF460
:1041E000207201900094074801F0E2FB002814BF00
:1041F0000320002005B0F0BD28290020DC29002084
:10420000A8260020CC290020FFF732BB2DE9F04F73
:10421000BD4D2B88834287B0044600F0E381AB8A12
:10422000834200F0E1812B8D834200F0DF81AB8F70
:10423000834200F0DD81B5F85030834200F0DA812E
:10424000B5F86430834200F0D781B5F87830834206
:1042500017D0B5F88C30834208BF072312D0204610
:10426000FFF70AFB40B107280CBF07230323029383
:10427000029807B0BDE8F08F0290029807B0BDE841
:10428000F08F062303EB830305EB83039E4D039519
:10429000022203218DE806002A884FF0000BA2427B
:1042A000CDF808B075D0984A928AA24200F01381E6
:1042B000954A128DA2426ED0934A928FA24200F08C
:1042C0002181914AB2F85020A24200F019818E4A11
:1042D000B2F86420A24200F011818B4AB2F8782033
:1042E000A24200F00981884AB2F88C20A24200F074
:1042F000F6800BF1010BBBF1080F5B4630D0039940
:104300008A8AA24235D0019B082B29D00B8DA3426B
:1043100000F0E380009B082B22D08B8FA34227D094
:104320000BF10303082B1BD0B1F85020A24220D080
:104330000BF10403082B13D0B1F86420A24218D06B
:104340000BF10503082B0BD0B1F87820A24210D056
:104350000BF10603082B03D0B1F88C20A24208D041
:10436000029B002B3FF47BAF029807B0BDE8F08FB3
:10437000009B039A14320392019A01320192009A2F
:10438000013200922A8803EB8303A24205EB8303E8
:1043900089D1002200E002229700B91805EB8101C3
:1043A00093F802A08B78534500F0A280564BB3F8E7
:1043B0008C30A34200F0AC80534B4FF007084FF015
:1043C000060C4FF0050E042703260221988AA0420E
:1043D00001F1FF3229D008298BD01A8DA2426AD070
:1043E000082E86D09A8FA2426DD0082F81D0B3F8C4
:1043F0005020A24265D0BEF1080F3FF47AAFB3F867
:104400006420A2425BD0BCF1080F3FF472AFB3F856
:104410007820A24251D0B8F1080F3FF46AAFB3F848
:104420008C20A2427FF465AF42464FEA820909EB35
:10443000020005EB8000807850450FD0013109293A
:1044400003F1140306F1010607F101070EF1010E55
:104450000CF1010C08F10108B8D14AE74A4405EB18
:104460008207786888BB0026FB684FF0000853B1CC
:10447000397C26484144C9B201F028FBFB6808F1A9
:1044800001089845F4D37B7C0298002E4FF0FF3250
:1044900018BF032003F0F9033A806FF300030022F2
:1044A000FF2102904FF0FF30B8707B743974FA60CE
:1044B0007A60BA601DE70A46B7E76246B5E772461A
:1044C000B3E73A46B1E73246AFE7FFF763F90028B2
:1044D000C9D00326C8E701225EE7019B49E793F8AC
:1044E00002A0094B93F88E30534511D107221C27A7
:1044F0003A4405EB8207B4E706224DE705224BE775
:10450000042249E7032247E728290020CC2900207C
:1045100006260222394BCDF814A007274FF0050ECE
:104520004FF0040C4FF00308012092460496998A3C
:10453000A14202462ED0BAF1080F3FF4DAAE1A8D2E
:10454000A2424BD0B8F1080F3FF4D3AE9A8FA242EB
:1045500042D0BCF1080F3FF4CCAEB3F85020A242D9
:1045600038D0BEF1080F3FF4C4AEB3F86420A242C5
:104570002ED0049A082A3FF4BCAEB3F87820A242A9
:104580002ED0082F3FF4B5AEB3F88C20A2427FF4B2
:10459000B0AE3A464FEA820909EB020105EB810110
:1045A0008E7805998E423FF459AF049A013001325A
:1045B000082803F114030AF1010A08F101080CF1BB
:1045C000010C0EF1010E049207F10107AFD190E644
:1045D0007246DFE76246DDE74246DBE75246D9E74F
:1045E000049AD7E700234DE601234BE6022349E670
:1045F000032347E6042345E6052343E62829002054
:104600000023FFF73BB800BF4BB12DE9F04FCC1FA3
:10461000012C83B005D9072003B0BDE8F08F0E2030
:104620007047541E072CF6D80546009316460C46D4
:10463000FFF72EF90028EED0DFF86883B8F80030D5
:10464000AB424CD0B8F81430AB4200F02281B8F83D
:104650002830AB4200F01B81B8F83C30AB4200F090
:104660001C81B8F85030AB4200F01581B8F86430C6
:10467000AB4200F02081B8F87820AA4200F01981FE
:10468000B8F88C20AA4200F00A81B8F80010C54A98
:104690004FF6FF73994200F01C81918A994200F015
:1046A000F281118D994200F0EC81918F994200F0D6
:1046B0008C81B2F85010994200F08581B2F86410F4
:1046C000994200F0E481B2F87810994200F0DD815F
:1046D000B2F88C10994200F0F08011209CE7002283
:1046E00002EB820108EB8101AE4B8978A14200F018
:1046F000DC80B3F88C20AA4200F069814FF0070AF1
:104700004FF006094FF0050C4FF0040E032702216D
:104710000EE00131092903F1140307F101070EF13D
:10472000010E0CF1010C09F101090AF1010AACD0EA
:10473000988AA84201F1FF3226D00829A5D01A8D07
:10474000AA427FD0082FA0D09A8FAA4278D0BEF17B
:10475000080F9AD0B3F85020AA426FD0BCF1080FCE
:1047600093D0B3F86420AA4266D0B9F1080F8CD078
:10477000B3F87820AA425DD0BAF1080F85D0B3F81B
:104780008C20AA4281D152464FEA820B0BEB0200E9
:1047900008EB80008078A042BBD15A4408EB820726
:1047A000FB689E4220D94FF0000963B1397C7E48F6
:1047B0004944C9B201F08AF909F10109FB685FFABD
:1047C00089F99945F2D37B7C03F0F9036FF3000379
:1047D0004FF6FF727B74FF2100233A80BA70397460
:1047E000FB607B60BB6050E70DD2F5B2AB420AD9EB
:1047F000397C6D482944C9B201F068F90135FB687C
:10480000EDB29D42F4D3397CFF291DD000256648C6
:10481000FE6001F043F918B306EB86031B01009913
:104820009BB29B080B808C704860BDB1082C19D0DE
:104830000020F1E64A46A7E76246A5E77246A3E7ED
:104840003A46A1E70A469FE73146574801F0DAF8B1
:10485000FF28014638740AD00125D8E72846DBE650
:104860000320D9E69B00063B83800020D4E67B7CB6
:10487000B87003F0F90300224FF6FF706FF30003E6
:1048800038807B74FA607A60BA601120C4E6022234
:1048900026E7012224E7042222E7032220E798F8F2
:1048A0008E30A34240F093800722142000FB028741
:1048B00076E7062214E7052212E792F88E30FF2BE6
:1048C00040F0EF800722142000FB02873D80BC707F
:1048D00099E70022142101FB0281324B8978FF29DC
:1048E000F1D0B3F88C104FF6FF72914200F0D980EE
:1048F0004FF0070B4FF0060A4FF005094FF0040C7C
:104900004FF0030E02213FE0BEF1080F3FF4E5AE89
:10491000988F904253D0BCF1080F3FF4DEAEB3F84D
:10492000500090424DD0B9F1080F3FF4D6AEB3F825
:104930006400904241D0BAF1080F3FF4CEAEB3F814
:104940007800904237D0BBF1080F3FF4C6AEB3F801
:104950008C0090427FF4C1AE584600EB800708EB14
:104960008707BF78FF2F22D00131092903F11403F3
:104970000EF1010E0CF1010C09F101090AF1010A15
:104980000BF1010B3FF4A9AE9F8A974201F1FF3072
:10499000E3D008293FF4A1AE188D9042B4D1084667
:1049A000DBE700BF28290020CC2900201846142767
:1049B00007FB00878AE75046CFE74846CDE77046B9
:1049C000CBE76046C9E7042284E7032282E702229C
:1049D0005C4B01964FF007094FF0060C4FF0050EA7
:1049E00004274FF0030A01201646998AA94202467D
:1049F00028D0082E23D01A8DAA4250D0BAF1080F21
:104A00001DD09A8FAA4248D0082F18D0B3F8502052
:104A1000AA4240D0BEF1080F11D0B3F86420AA42D8
:104A200037D0BCF1080F0AD0B3F87820AA4208D0DA
:104A3000B9F1080F03D0B3F88C20AA421DD0019E13
:104A400023E662464FEA820B0BEB020108EB810181
:104A50008978A14213D00130082803F1140306F12C
:104A600001060AF1010A07F101070EF1010E0CF12E
:104A7000010C09F10109B8D1E1E74A46E2E7019EDC
:104A80008BE6022226E7012224E7062222E70522FE
:104A900020E77246D6E73A46D4E75246D2E7324696
:104AA000D0E7284A01234FF6FF714FF0140E908A89
:104AB00088423AD05F1C082F38463FF40EAEB2F859
:104AC00028C08C4528D0981C08283FF406AEB2F8C0
:104AD0003CC08C4520D0D81C08283FF4FEADB2F86D
:104AE00050C08C4518D0181D08283FF4F6ADB2F818
:104AF00064C08C4510D0581D08283FF4EEADB2F8C4
:104B000078C08C4508D0022B3FF4E7ADB2F88C306A
:104B10008B427FF4E2AD07200EFB00839B78FF2BD6
:104B20003FF445AF3B461432C1E70EFB038080786B
:104B3000FF283FF43BAF0133082B02F114023FF48E
:104B4000CCADB4E7282900202DE9F84F9D4C2388EF
:104B5000834222D0A38A834200F0B580238D834212
:104B600000F0B380A38F834200F0B180B4F85030DE
:104B7000834200F0BC80B4F86430834200F0B5801A
:104B8000B4F87830834200F0AE80B4F88C308342C1
:104B900000F09F800520BDE8F88F00229500AE1838
:104BA00004EB8606874BB6788E4200F09880B3F807
:104BB0008C20824200F09D804FF007094FF00608DC
:104BC0004FF0050C4FF0040E032702269D8A854204
:104BD00006F1FF3226D0082EDCD01A8D824268D032
:104BE000082FD7D09A8F824261D0BEF1080FD1D062
:104BF000B3F85020824258D0BCF1080FCAD0B3F8A5
:104C0000642082424FD0B8F1080FC3D0B3F87820A7
:104C1000824250D0B9F1080FBCD0B3F88C20824248
:104C2000B8D14A464FEA820A0AEB020504EB850531
:104C3000AD788D4211D00136092E03F1140307F12E
:104C400001070EF1010E0CF1010C08F1010809F148
:104C50000109BBD10520BDE8F88F524404EB820462
:104C6000606850BB0026E36800254BB1217C5648A4
:104C70002944C9B200F02AFFE36801359D42F5D30B
:104C8000637C03F0F90300224FF6FF716FF300031A
:104C9000FF2563742180A1702574E2606260A260C8
:104CA0003046BDE8F88F6246BCE77246BAE73A463E
:104CB000B8E73246B6E74246B4E7FEF76BFD002898
:104CC000D0D00326CFE7012268E7022266E703225D
:104CD00064E794F88E308B420BD107221C252A44BE
:104CE00004EB8204BCE7062258E7052256E70422BB
:104CF00054E7344B4FF007084FF0060C4FF0050E09
:104D00000427032602254FF001099A8A82424CD0DB
:104D1000082D3FF43FAF1A8D824250D0082E3FF449
:104D200039AF9A8F824248D0082F3FF433AFB3F89F
:104D3000502082423FD0BEF1080F3FF42BAFB3F8B2
:104D40006420824235D0BCF1080F3FF423AFB3F8A2
:104D5000782082422BD0B8F1080F3FF41BAFB3F894
:104D60008C2082427FF416AF42464FEA820A0AEB59
:104D7000020B04EB8B0B9BF802B08B453FF46DAF3D
:104D800009F10109B9F1080F03F1140305F1010557
:104D900006F1010607F101070EF1010E0CF1010CFD
:104DA00008F101083FF4F6AEAFE74A46DDE7624698
