:100000000000012091190000B9190000BB1900007F
:10001000BD190000BF190000C11900000000000058
:10002000000000000000000000000000C3190000F4
:10003000C519000000000000C7190000C919000020
:10004000CB190000CB190000C9050000CB19000036
:10005000CB190000CB190000CB190000CB19000010
:10006000CB190000CB190000CB190000CB19000000
:10007000CB190000CB190000CB190000CB190000F0
:10008000CB190000CB190000CB190000CB190000E0
:10009000CB190000CB190000851D0000CB19000012
:1000A000CB190000CB190000CB190000CB190000C0
:1000B000CB190000CB190000000000000000000078
:1000C000CB190000CB190000CB190000CB190000A0
:1000D000CB190000A50B0000CB19000000000000A8
:1000E0000000000000000000000000000000000010
:1000F0000000000000000000000000000000000000
:1001000000000000000000000000000000000000EF
:1001100000000000000000000000000000000000DF
:1004000010B5054C237833B9044B13B10448AFF34E
:1004100000800123237010BD740000200000000044
:1004200080220000084B10B51BB108490848AFF303
:1004300000800848036803B910BD074B002BFBD0B0
:10044000BDE81040184700BF000000007800002001
:10045000802200007000002000000000154B002BDF
:1004600008BF134B9D46A3F5803A00218B460F46EB
:100470001348144A121A00F065F80F4B002B00D0F5
:1004800098470E4B002B00D0984700200021040015
:100490000D000D48002802D00C48AFF3008000F09A
:1004A0002BF82000290001F063F900F011F800BFDB
:1004B0000000080000000120000000000000000013
:1004C000740000207C0500200000000000000000F7
:1004D00008B5074B044613B10021AFF30080054B6C
:1004E0001868836A03B19847204600F033F800BFCC
:1004F00000000000D421000070B50E4B0E4CE41A31
:10050000A41000251E46A54204D056F82530984771
:100510000135F8E701F052FE084C094BE41AA4102B
:1005200000251E46A54204D056F8253098470135CF
:10053000F8E770BD68000020680000206C00002013
:100540006800002002440346934202D003F8011BD6
:10055000FAE77047FEE700BF00B585B000230390BF
:10056000194601AA44F20100ADF80430029301F0EB
:10057000F5F805B05DF804FB002810B418DB00F1B5
:10058000604303F561434901C9B283F80013C3B264
:100590004009800000F1604000F5614003F01F0257
:1005A00001239340C0F8803103605DF8044B70472D
:1005B000C3B2044A03F00F0449012244C9B21176C0
:1005C000E6E700BFFCEC00E070B59B4C237F8EB0EB
:1005D000002B75D1994AD2F80413890548D4974B5A
:1005E000D3F80423520704D5D3F80821002A40F099
:1005F000CA80924BD3F81C21C2B1A28AA07D8E4939
:1006000092B282424FF00002C3F81C2180F0A98010
:10061000D3F81C210692069A888A8A8A8D6880B24D
:100620000132285C92B28A82C3F81C05834BD3F84E
:100630004421DAB10022C3F84421D3F84411A27E48
:1006400004910499002A40F08980E27D7A4B6AB1D6
:100650000022587ED968DA7501228DF830000B919E
:100660008DF828200AA893E8060090470EB070BDC8
:10067000D2F824110029B2D0C2F82431D2F82411C2
:10068000A37E07914FF401710798C2F808130BB9C4
:1006900001235360694A02238DF82830D2F8803450
:1006A000C2F88034E07DE2680D9300238DF83000BD
:1006B000E375237621680B9263680AA8984798E748
:1006C0005E4BD3F82421002A40F09380D3F8101118
:1006D00061B1C3F81021D3F8101103910399D3F835
:1006E0003C15E07DC9B2884200F0AA80534BD3F894
:1006F0004421B2B10022C3F84421D3F84411E07D73
:10070000019101994C4960B1D3F83C35C8688DF826
:1007100030300123CA750B908DF828300AA80AC919
:100720009847464BD3F82021002A9FD00022C3F8D7
:100730002021D3F82011A07D009100993E49002886
:1007400094D0D3F84C058B688DF830008A750B93E4
:100750008DF828200AC90AA8984787E701221A605D
:1007600073E7D3F81C310593059B00283FF45EAF77
:100770008B688DF830008A750B938DF828200AC994
:100780000AA8984752E7E17D2B4A002970D0002142
:10079000C3F80811D3F8081108910899D068517E60
:1007A000D3F818354354537ED17D0133DBB25376F1
:1007B000627E214B8A427FF41CAF1A7E002A6DD1E3
:1007C0009B7E13B91D4B01225A601C4AE068636886
:1007D0004FF40171C2F80813627E8DF830200025B5
:1007E00001220B902168E5758DF828200AA898470A
:1007F000FFE60022C3F82421D3F82411029102213C
:100800008DF828100299D3F88014C3F880140D9144
:10081000D3F83C15E368E27522768DF830100B931F
:10082000216863680AA89847044BD3F84421002A3A
:100830003FF477AF5EE700BF90000020002000404B
:10084000217EF1B1D3F80062E17526F02001E56860
:10085000C3F8001226698DF8300001238DF8283086
:10086000227621680B95E66063680AA898473DE701
:10087000C3F80811D3F808210992099AD3F818355A
:1008800096E7E268E17501238DF830008DF8283095
:100890000B9294E80A000AA8984727E7DE685D7E75
:1008A0001869DA7501210022D8601A765A768DF817
:1008B00028100B968DF8305093E806000AA8904750
:1008C00097E600BF2DE9F041564C237913B108207B
:1008D000BDE8F0810A46002800F08F808579C7794D
:1008E00090F80880467A90F80AC0C16890F810E045
:1008F000002D5CD04C4BC3F80455C3F82475C3F8E5
:100900002085C3F81C65C3F828C5C3F818E500297D
:100910005DD00125C3F81415C3F810558379002B59
:100920005AD103784FF0A04103F5E073032541F855
:100930002350437803F5E07341F823508378FF2B6D
:1009400058D003F5E0711E464FF0A043032543F84D
:100950002150C378FF2B5BD003F5E0711D464FF0AB
:10096000A043032743F821700179FF2953D001F5F3
:10097000E0774FF0A0434FF0000E43F827E02A4BFA
:1009800090F800E04778C3F864E5C3F86875C3F8E9
:100990006065C3F87055C3F86C1541792260252055
:1009A000FFF7EAFD012323710020BDE8F081012E4D
:1009B00034D0022E9ED1BEF1080F9BD840F25513C1
:1009C00023FA0EF3DB0795D50720BDE8F081C3F8C5
:1009D00010158379002BA4D003784FF0A04103F5C4
:1009E000E073002541F82350437803F5E07341F8A4
:1009F0002350A3E74FF0FF36ABE707468046054696
:100A000084464FF0D00E09484FF0C051012671E7DF
:100A10004FF0FF35A8E74FF0FF31B0E7BEF1010F0F
:100A2000D2D067E7B000002000500240D82100007B
:100A3000F0B4094B094C0A4E0A492227012500222D
:100A40002020C3F8087332712560C3F80025C1F86F
:100A50008400F0BC704700BF0050024004500240C8
:100A6000B000002000E100E0F0B53F4C2579012DF9
:100A700083B002D0082003B0F0BD38B100F060456B
:100A8000B5F1005F02D0102003B0F0BD21B101F03C
:100A90006045B5F1005FF6D16679344DA06010F184
:100AA000000E4FEA520746F00806E16018BF4FF00B
:100AB000010EC5F85075E780C5F8380566710E1C43
:100AC00018BF012613F00103C5F808E5C5F8401565
:100AD000C5F80C65244E23D07379002830D0002946
:100AE00039D0012403F0F903C5F800452343084633
:100AF0000224002173713471FFF724FD1C491D4A43
:100B00001A4B002008600968019101991060126871
:100B1000009222210122009CC3F804131A60AAE764
:100B20007279012063F3000202237271C5F8000597
:100B300033710029E2D023683A4600209847DDE768
:100B400060F30003022201207371C5F800053271C1
:100B50000029F0D1D2E7012061F300030222737172
:100B6000C5F800053271C9E7B0000020005002400E
:100B7000045102401451024030B4074B074C08485E
:100B8000222501220021C3F8085322710260C3F814
:100B9000001530BC704700BF00500240B00000207C
:100BA0000450024030B5394A136883B0002B42D15B
:100BB000374B0021374A106838B3002010601268A4
:100BC00098680192019A324CF8B1334A304DD2F80C
:100BD0003825904204BFE28800EB82002E4AC2F81A
:100BE00038055A7942F0020214465A7122073BD561
:100BF00014F001020ED162F3C3046C7119B100202C
:100C00001C68DA88A04703B030BD5A79D007F5D503
:100C10009207F8D55B791E4C5A07F4D503F0FD0313
:100C20006FF38203DAB21507637126D56FF3C3023F
:100C3000627103B030BD0021154B11601268D96894
:100C40000092009A0029B4D0134AD2F8402591426C
:100C500004BFDA8801EB82010F4AC2F840155A79C5
:100C600042F004025A71A5E7E407D3D40028C5D0A6
:100C70001C68DA88A04703B030BD074B2568D3F85D
:100C80003805E288D3F84015A847BCE71451024064
:100C9000B00000200451024000500240002900F042
:100CA000B8812DE9F041DFF878E39EF8003033B9E0
:100CB000D84A13780133DBB21370BDE8F08193009A
:100CC000D548D64A9BB2A0FB0303DB08106800F0AE
:100CD0005381013B9BB203EB43039C1D044401F190
:100CE0000C020330E827EE268E258821C9E0BCF5EA
:100CF000400F00F08B81BCF5800F00F0848102F87A
:100D00000B1C9B0003F4400CBCF5000F00F0D380DB
:100D1000BCF5400F00F07481BCF5800F00F06D81D0
:100D200002F80C1C9B0003F4400CBCF5000F00F013
:100D3000CB80BCF5400F00F05D81BCF5800F00F06A
:100D4000568102F8091C9B0003F4400CBCF5000F0F
:100D500000F0C380BCF5400F00F04681BCF5800F69
:100D600000F03F8102F80A1C9B0003F4400CBCF524
:100D7000000F00F0BB80BCF5400F00F02F81BCF5E8
:100D8000800F00F0288102F8071C9B0003F4400C40
:100D9000BCF5000F00F0B380BCF5400F00F01881E7
:100DA000BCF5800F00F0118102F8081C9B0003F4D1
:100DB000400CBCF5000F00F0AB80BCF5400F00F01C
:100DC0000181BCF5800F00F0FA8002F8051C9B0041
:100DD00003F4400CBCF5000F00F0A380BCF5400FFD
:100DE00000F0EA80BCF5800F00F0E38002F8061CFA
:100DF0009B0003F4400CBCF5000F00F09B80BCF599
:100E0000400F00F0D380BCF5800F00F0CC8002F8DA
:100E1000031C9B0003F4400CBCF5000F00F0938012
:100E2000BCF5400F00F0BC80BCF5800F00F0B58031
:100E300002F8041C9B0003F4400CBCF5000F00F00A
:100E40008B80BCF5400F00F0A580BCF5800F00F052
:100E50009E8002F8011C9B0003F44003B3F5000FD1
:100E600000F08380B3F5400F00F08E80B3F5800F63
:100E700000F0878002F8021C0330A04202F10C024D
:100E80007AD010F8023C10F8038C10F801CC1B0249
:100E900043EA084343EA0C0303F4400CBCF5000F9B
:100EA0007FF425AF9B0003F4400CBCF5000F02F863
:100EB0000B7C7FF42DAF9B0003F4400CBCF5000FBE
:100EC00002F80C7C7FF435AF9B0003F4400CBCF5BA
:100ED000000F02F8097C7FF43DAF9B0003F4400C47
:100EE000BCF5000F02F80A7C7FF445AF9B0003F4C9
:100EF000400CBCF5000F02F8077C7FF44DAF9B005F
:100F000003F4400CBCF5000F02F8087C7FF455AFE9
:100F10009B0003F4400CBCF5000F02F8057C7FF445
:100F20005DAF9B0003F4400CBCF5000F02F8067C9B
:100F30007FF465AF9B0003F4400CBCF5000F02F892
:100F4000037C7FF46DAF9B0003F4400CBCF5000FF5
:100F500002F8047C7FF475AF9B0003F44003B3F503
:100F6000000F02F8017C7FF47DAF0330A04202F84D
:100F7000027C02F10C0284D100238EF80030BDE81F
:100F8000F08102F8025C77E702F8026C74E702F87D
:100F9000015C60E702F8016C5DE702F8045C49E778
:100FA00002F8046C46E702F8035C32E702F8036CCF
:100FB0002FE702F8065C1BE702F8066C18E702F858
:100FC000055C04E702F8056C01E702F8085CEDE651
:100FD00002F8086CEAE602F8075CD6E602F8076C4D
:100FE000D3E602F80A5CBFE602F80A6CBCE602F837
:100FF000095CA8E602F8096CA5E602F80C5C91E62B
:1010000002F80C6C8EE602F80B5C7AE602F80B6CC8
:1010100077E67047C0000020ABAAAAAAFC04002013
:10102000C10000202DE9F0414C4D86B09646804627
:101030000E460FCD00AF3C1D0FC428682060002372
:10104000FF2287F807E04FF0160C4FF0020E4FF02A
:10105000C05443493C610125381D87F804C07A71AA
:10106000BA713A7287F809E0BB72FB723B73BB73CB
:101070003B757D73FFF726FC0446002867D106EB1D
:10108000460292B293000A3323F00703ADEB030D3F
:10109000344BDFF8DCC0DFF8DCE01870520092B2AD
:1010A00069460346CCF800808EF80050FFF7DCFC60
:1010B000044600284BD114362B4B2C4A1B68C6EB38
:1010C0000616760000BF00BF00BF00BF00BF00BF14
:1010D00000BF00BF93422FD000BF00BF00BF00BFC2
:1010E00000BF00BF00BF00BF00BF00BF00BF00BF08
:1010F00000BF00BF00BF00BF00BF00BF00BF00BFF8
:1011000000BF00BF00BF00BF00BF00BF00BF00BFE7
:1011100000BF00BF00BF00BF00BF00BF00BF00BFD7
:1011200000BF00BF00BF00BF00BF00BF00BF00BFC7
:1011300000BF00BF00BF00BF013EC3D1FFF71CFDD1
:10114000FFF776FC20461837BD46BDE8F081FFF773
:1011500003FA20461837BD46BDE8F081EC210000B7
:101160009D0C0000C0000020640000200024F4005A
:10117000FC040020C1000020B1B3830735D106294B
:1011800033D9F0B50D1FC5F38D050135AB00002631
:101190009BB2374600F10C0401361FFA86FE7545F6
:1011A00044F80C7C44F8087C44F8047C4FF00002BE
:1011B00004F10C04F0D803EB4306994200EB06045B
:1011C00011D05D1CADB2A94282556270A2700AD9DD
:1011D00002339BB29942E2702271627117D9A271F7
:1011E000E2712272F0BDF0BD7047013989B201EBA6
:1011F00041018B1D03440022033000F8032C00F84A
:10120000022C00F8012C03309842F6D17047F0BD53
:10121000002958D04B1E9BB203EB4303F0B50633B5
:10122000C51C002718442B4613F803EC13F8024C96
:1012300013F8016C74440333344483422744F3D1DC
:1012400007EB4707204EC7EB0717A6FB0736F60943
:101250008B199A4236D2521A48BF012215F8031C44
:1012600015F8023C15F8014C11F1000C18BF4FF0B5
:10127000010C13F1000E02FB01F718BF4FF0010E35
:1012800097FBF6F1271C18BF012711F0FF0108BFDB
:10129000614602FB03F393FBF6F313F0FF0308BF71
:1012A000734602FB04F494FBF6F414F0FF0408BF49
:1012B0003C4605F8031C05F8023C05F8014C0335D3
:1012C000A842CBD1F0BD70472B80D52A2DE9F04143
:1012D00000EB4005284600F079FE444C444F206066
:1012E000284600F073FE434B266818600025FF2354
:1012F00004EE905A07EE905A06EE105A284606EE73
:10130000903A04EE103AB2EE082AF1EE082AB6EE50
:10131000003AF7EE003A14E017F80E3098F8022081
:1013200006EE103A3B5D07EE902A04EE103A9CF868
:10133000022098F8013004EE902A06EE903A9CF8CC
:10134000013007EE100AF8EEC75A07EE105A65EEA4
:10135000825AB8EEC75A85EEA27A01356810421C4F
:1013600002EB420400EB400E0C2D07EB0E0807EBDE
:10137000040C06F10306B8EEC66A75EE475A05EE90
:10138000103A65EE835AB8EEE77AB8EEC44A73EEC7
:10139000E57AF8EEE66AF8EEE44AB8EEC55A66EE8B
:1013A000A76A26EE276A24EE254A67EE277A64EEBE
:1013B000A54A25EE257A36EE046A36EE877A77EE70
:1013C000A47AFCEEC66ABCEEC77AFCEEE77A16EEAB
:1013D000901A17EE102A17EE903A06F8031C06F83A
:1013E000022C06F8013C97D1BDE8F081C80000202E
:1013F00000220000C400002008B5054B186800F06A
:10140000EDFD044B1868BDE8084000F0E7BD00BFE3
:10141000C8000020C40000202DE9F04FCD4ACE4B7B
:1014200012681B6811889478198011469C7095B0D9
:1014300031F8034F0691897859711146A3F803409A
:1014400031F8064F0791897819721146DC8031F81E
:10145000094F08918978D9721146A3F8094031F8EB
:101460000C4F09911546897899739C8135F80F4F77
:101470000A95A97859741546A3F80F4035F8124F0C
:1014800003F1120A2E465546B17802955C82A97086
:101490001546924635F8154F0B96A978D975A3F8DD
:1014A00015403AF8184FCDF834A09AF802101C8372
:1014B0001446997634F81BAF0C95214603F11B0BAB
:1014C0005C460E918978A3F81BA09246A1703AF869
:1014D0001EBF0194514603F11E0A544691F802A022
:1014E000A3F81EB0934684F802A03BF821AF0F91F9
:1014F000594693F800B003941091CDF810B091F8CC
:1015000002B0CDF844B093F805B0A3F821A0594635
:1015100093F801B0B3F803A0CDF814B093F802B07B
:10152000A3F800A0CDF84CB093F808A0B3F806B02B
:10153000A3F803B083F805A0B3F809B093F80BA0A3
:10154000A3F806B083F808A0B3F80CB093F80EA087
:10155000029CA3F809B083F80BA0B3F80FB093F87E
:1015600011A09970A3F80CB083F80EA0B4F800B0E5
:1015700094F802A01291A3F80FB083F811A0B3F869
:1015800015B093F817A0A3F812B084F802A0B3F82E
:1015900018B093F81AA0019CA3F815B083F817A00F
:1015A00094F802A0B4F800B00399A3F818B083F837
:1015B0001AA091F802A0B1F800B0A3F81BB00C4635
:1015C00001999B4681F802A03BF821AFA3F81EA029
:1015D0009DF844109DF810A0A17083F821A09DF8FB
:1015E00014A083F822A09DF84CA083F823A09DF8B6
:1015F0004840B3F800A0A0F800A003F115068470DD
:1016000003F11805B3F800A003F1030903F106087C
:1016100003F1090C03F10C0E03F10F079B78937093
:10162000A2F800A0B9F8003099F802A080F805A04F
:10163000A0F80330B9F8003099F80290A2F803300E
:10164000069B83F80290B8F8003098F8029080F872
:101650000890C380B8F8003098F80280D380079BC8
:1016600083F80280BCF800309CF8028080F80B8080
:10167000A0F80930BCF800309CF802C0A2F809308C
:10168000089B83F802C0BEF800309EF802C080F8C4
:101690000EC08381BEF800309EF802E09381099B62
:1016A000029983F802E03B8897F802E080F811E0A5
:1016B000A0F80F303B88BF78A2F80F300A9B9F70CC
:1016C0008F789E460B88438207750B888F785382EC
:1016D0000B9B9F70B7783388A0F81530C775378893
:1016E000B3780C99A2F815708B702B88AE7886763B
:1016F00003830D992E88AB78019F16838B703B88EE
:10170000BD784577A0F81B300E99BB783D88039CC7
:10171000A2F81B508B7023882146A47880F82040C3
:10172000C3830C888B780F99D4838B70BBF80030FF
:101730009BF8021080F82310A0F82130BBF80010AD
:101740009BF80230A2F8211010998B7015B0BDE8FB
:10175000F08F00BFC8000020C40000204FF0A0435D
:101760004FF4F0110022C3F80C15C3F80825FEE76A
:101770002DE9F04100238AB04FF460204FF0A041E2
:1017800003220133202B40FA03F503F5E07404D063
:10179000ED0748BF41F82420F3E74FF0A0440023B1
:1017A0004FF46022C4F808251846C4F80C35714976
:1017B000714E00F0FFFAB0467049002000F0FAFACE
:1017C000D4F80435DA4302F4003203F40033C4F8E9
:1017D00008250C20C4F80C35FFF778FD4FF4FA7596
:1017E00047E04FF40023C4F80835C4F80C0544F66C
:1017F00020633268624F00BF00BF00BF00BF00BF60
:1018000000BF00BF00BFBA422FD000BF00BF00BF63
:1018100000BF00BF00BF00BF00BF00BF00BF00BFD0
:1018200000BF00BF00BF00BF00BF00BF00BF00BFC0
:1018300000BF00BF00BF00BF00BF00BF00BF00BFB0
:1018400000BF00BF00BF00BF00BF00BF00BF00BFA0
:1018500000BF00BF00BF00BF00BF00BF00BF00BF90
:1018600000BF00BF00BF00BF00BF013BC3D1013DAF
:1018700026D0D4F80435DA4302F4003203F40033FE
:10188000C4F8082501A8C4F80C35FFF7C5FD4FF4CE
:1018900048720C2101A8FFF7BBFC0B220C2101A808
:1018A000FFF7C0FB00289CD000234FF40022C4F8AF
:1018B0000C251846C4F80835324900F07BFA96E743
:1018C000FFF79AFD01A80C21FFF756FC0B220C2113
:1018D00001A8FFF7A7FB2C49284600F06BFA4FF44C
:1018E0008021C4F80C15C4F80855284BD8F80020FE
:1018F00000BF00BF00BF00BF00BF00BF00BF00BFF0
:10190000BA422FD000BF00BF00BF00BF00BF00BF62
:1019100000BF00BF00BF00BF00BF00BF00BF00BFCF
:1019200000BF00BF00BF00BF00BF00BF00BF00BFBF
:1019300000BF00BF00BF00BF00BF00BF00BF00BFAF
:1019400000BF00BF00BF00BF00BF00BF00BF00BF9F
:1019500000BF00BF00BF00BF00BF00BF00BF00BF8F
:1019600000BF00BF013BC3D1C4F80815C4F80C5533
:1019700022E700BF18220000640000202822000097
:101980000024F4003422000050220000C0C62D00C4
:101990000649074A074B9B1A03DD043BC858D05041
:1019A000FBDC00F013F8FEF759FD00008C2200006C
:1019B0000000002074000020FEE7FEE7FEE7FEE7DF
:1019C000FEE7FEE7FEE7FEE7FEE7FEE7F0B4A64B24
:1019D0001B78062B1BD0A54AD2F8883043F470033D
:1019E000C2F88830BFF34F8FBFF36F8F4FF01023D3
:1019F000D3F80022002AC0F20581D3F80432002B6C
:101A0000C0F200819A4B9B4A1A60F0BC70479A4B17
:101A10001B681E07DFD1994B1B6803F0F003302BC6
:101A200002D1974B974A1A60944B1B6803F0F0025F
:101A3000302A00F0D68003F0E003402B00F0D18084
:101A40008E4B1B6803F0F003302B00F0BB808B4BF8
:101A50001B6803F0F002302A00F0A08003F0E003DE
:101A6000402B00F09B80854B1B6803F0F003302B6C
:101A700000F08680814B1B6803F0F003302B68D0A8
:101A80007E4B1B6803F0F003502B10D07B4B1B6880
:101A900003F0F002302A03D003F0E003402B9AD188
:101AA000794B7A4A1B6803F04F03136093E74FF0BA
:101AB0008052774BD2F80414C3F82015D2F80814DA
:101AC000C3F82415D2F80C14C3F82815D2F8101452
:101AD000C3F82C15D2F81414C3F83015D2F8181422
:101AE000C3F83415D2F81C14C3F84015D2F82014EA
:101AF000C3F84415D2F82414C3F84815D2F82814B2
:101B0000C3F84C15D2F82C14C3F85015D2F8301481
:101B1000C3F85415D2F83414C3F86015D2F8381449
:101B2000C3F86415D2F83C14C3F86815D2F8401411
:101B3000C3F86C15D2F844244B49C3F870250A78D1
:101B4000062A7FF448AF4C4B1B681B077FF443AF5A
:101B50009CE7454B4F491B784F4D5048504A05274D
:101B60000F60012600243F21062B2E6004601160C7
:101B70007FF431AF404B1B681A077FF42CAF7FE72F
:101B8000394B484A1B780321062B11607FF423AFA1
:101B9000394B1B6819077FF41EAF6BE7324B1B787C
:101BA0004FF080420021062BC2F80C11C2F8101130
:101BB000C2F838157FF40FAF2F4B1B6818077FF45E
:101BC0000AAF50E73849284ACB68127823F080736F
:101BD000062ACB60B4D1284B1B681C077FF4FBAEF0
:101BE00035E7324A204B12681B783149C2F3423242
:101BF000062B0A607FF4EFAE1F4B1B681D077FF4B6
:101C0000EAAE1DE72B4B0122C3F80425D3F80024CC
:101C1000002AFBD04FF0102315222649C3F80022DA
:101C2000D1F80034002BFBD04FF0102315222149AE
:101C3000C3F80422D1F800241E4B002AFAD0002257
:101C4000C3F80425D3F80024002AFBD0BFF34F8F3C
:101C50000649194BCA6802F4E0621343CB60BFF334
:101C60004F8F00BFFDE700BFE00F00F000ED00E088
:101C7000640000200090D003E40F00F0E80F00F0B3
:101C800074C007400DF0ADBA58020010E40E0040D9
:101C900000C00040105600408856004018560040D2
:101CA00014560040A0050040F0ED00E04402001092
:101CB0003C05004000E001400400FA0548DF7047A1
:101CC00061DF70472DE9F04FDFF8AC90DFF8ACA092
:101CD000D9F80050DAF80040254EDFF8A480254FEF
:101CE000B5FA85F5B4FA84F483B06D096409B5B921
:101CF0003378DFF87CB07BB901A8FFF7DFFF052858
:101D00002FD020B3FEF728FC6CB13378DFF860B039
:101D100001240025002BEFD003B0BDE8F08F002C8C
:101D2000FAD1DFF84CB09BF80030002BF4D102A9B7
:101D30003A68B8F8003021F8043D1046FFF7C0FFBC
:101D4000052812D040B1FEF707FC0024CFE7D9F8F0
:101D5000003001989847D7E71046DAF800309847E6
:101D6000F3E7002CD8D10125DDE7002DCDD0D3E756
:101D7000CC000020D0000020D4000020D80000209B
:101D8000CE00002008B5094B1B6833B1984700B955
:101D900008BDBDE80840FEF7DFBB054B1B78002BF4
:101DA000F6D0BDE80840FFF78DBF00BFDC00002083
:101DB000CD0000202DE9F04FDFF80C8283B0824681
:101DC0000846894600F0E2F998F80030074673BBF0
:101DD000C8F82830774AC8F824300221C8F85830AB
:101DE000C8F82C30C8F85C30C8F854304FF4806024
:101DF0001023714D714CC8F85030C8F81010C8F855
:101E00001410C8F81820C8F848206D49C8F82000F8
:101E1000C8F81C5008F10700C8F84C4000F0AEF9B3
:101E20006849404600F0AAF9202388F80630EFF30D
:101E300011824FF0800181F311884FEA4A0303EBCE
:101E40000A0608EBC6060192F26A012A46D032D38E
:101E5000022A3AD10AF1010A0AEB4A0A756A4FEAE4
:101E6000CA0A4FF0000B1CE0326A641BBC4208EB4C
:101E70000A012346A2EB050428BF3B469C42486862
:101E800028BF1C4628444946224600F0AFF8336A72
:101E900025449D4208BF00253F1BA344A144756211
:101EA00015D0B36AAB4203F1FF34DDD8326A134474
:101EB000013B5C1BDAE7B16A726A91429CBF306AEF
:101EC000091801398A1A974239D94FF0000B019B42
:101ED00083F31188584603B0BDE8F08FB16A746A85
:101EE000A14226D90139326AC4EB010B534408EBF5
:101EF000C308BB45D8F82450334B28BFBB46561BFC
:101F00000AF1010AB3450AEB4A0A3AD303EBCA04C1
:101F10003246606849462844C6EB0B0500F066F877
:101F2000606809EB06012A4600F060F8C8F8245002
:101F3000CDE7326A88180138C4EB000BD6E753446A
:101F400008EBC3080AF1010AD8F82460D8F8204049
:101F50001D4BA41BA7420AEB4A0A1ED303EBCA057A
:101F600022466868494630443E1B00F03FF86868E6
:101F700009EB0401324600F039F8BB46C8F824608A
:101F8000A5E703EBCA03494658685A4628445D440E
:101F900000F02CF8C8F8245099E703EBCA0349462F
:101FA00058683A4630443E4400F020F8BB46C8F832
:101FB00024608CE768220000F0000020E000002090
:101FC000742200007822000000050020024B014628
:101FD000186800F065B800BF60000020024B0146A1
:101FE000186800F00FB800BF6000002010B5431E55
:101FF0000A44914204D011F8014B03F8014FF8E76D
:1020000010BD000038B50546002946D051F8043C03
:102010000C1F002BB8BFE41800F0C0F81F4A13686B
:10202000114613B96360146032E0A3420ED92268EE
:10203000A018834204BF18685B68636004BF12186D
:1020400022600C6024E0A24203D813465A68002A9A
:10205000F9D118681918A1420BD121680144581808
:102060008242196014D1106852685A6001441960A4
:102070000EE002D90C232B600AE02168601882422E
:1020800004BF10685268626004BF091821605C6078
:102090002846BDE8384000F082B838BDF40400207E
:1020A00070B5CD1C25F0030508350C2D38BF0C2567
:1020B000002D064601DBA94202D90C23336046E01D
:1020C00000F06CF8234B1C681A462146A1B10B683E
:1020D0005B1B0ED40B2B03D90B60CC18CD501EE02C
:1020E0008C420DBF63684B686360136018BF0C4679
:1020F00015E00C464968E9E7174C23681BB93046E0
:1021000000F02CF820602946304600F027F8431CE8
:1021100018D0C41C24F00304A0420DD12560304621
:1021200000F03DF804F10B00231D20F00700C31A56
:102130000ED05A42E25070BD211A304600F00EF81F
:102140000130EBD10C233360304600F028F800203A
:1021500070BD00BFF4040020F004002038B5064C28
:10216000002305460846236000F01AF8431C02D1FC
:10217000236803B12B6038BD78050020034611F8B1
:10218000012B03F8012B002AF9D17047034613F8FD
:10219000012B002AFBD1181A01387047704770478D
:1021A000044A05491368002B08BF0B461844106009
:1021B00018467047F804002080050020F8B500BFDD
:1021C000F8BC08BC9E467047F8B500BFF8BC08BC18
:1021D0009E467047000000201F1EFF1D1C060000C9
:1021E0000001000000000018D00000001F1EFF1DAD
:1021F0001C0600000001000000000018D0000000D4
:1022000000FF00FFFF00FF0000FF00FF0000FF00D5
:10221000FFFF00FF000000005753323831326220C8
:1022200044656D6F0A00000044656D6F2073746132
:1022300072740A004552524F523A2053656E642020
:10224000746F204C4544206661696C6564210A0006
:10225000426C616E6B204C454420616E6420576176
:1022600069742033730A00005465726D696E616C85
:1022700000000000525454005345474745520000A7
:04228000000000005A
:08228400D8E1FF7F010000001A
:10228C000000000000000000000000000000000042
:10229C000000000000000000000000000000000032
:1022AC000000000000000000000000000000000022
:1022BC000000000000000000000000000000000012
:1022CC000000000000000000000000000000000002
:1022DC0000000000000000000000000000000000F2
:1022EC00000000200090D003250400000104000031
:0422FC0000000000DE
:04000003000019914F
:00000001FF
